:020000041004E6
:10000000E8570130CD3A0410F53A0410F53A0410DF
:1000100000000000000000000000000000000000E0
:10002000000000000000000000000000F53A04108D
:100030000000000000000000F53A04100D04041058
:10004000F53A0410F53A0410F53A0410F53A0410A4
:10005000F53A0410F53A0410F53A0410F53A041094
:10006000F53A0410F53A0410F53A0410F53A041084
:10007000F53A0410F53A0410F53A0410F53A041074
:10008000A104041019050410F53A0410F53A0410FF
:10009000F53A041081050410F53A0410F53A0410FD
:1000A000F53A0410F53A0410F53A0410F53A041044
:1000B000F53A0410F53A0410F53A0410F53A041034
:1000C000F53A0410F53A0410F53A0410F53A041024
:1000D000F53A0410F53A0410F53A0410F53A041014
:1000E000F53A0410F53A0410F53A0410F53A041004
:1000F000F53A0410F53A0410F53A0410F53A0410F4
:10010000F53A0410F53A0410F53A0410F53A0410E3
:10011000F53A0410BD430410F53A0410F53A041002
:10012000F53A0410F53A0410F53A0410F53A0410C3
:10013000F53A0410F53A0410F53A0410F53A0410B3
:10014000F53A0410F53A0410F53A0410F53A0410A3
:10015000F53A0410F53A0410F53A0410F53A041093
:10016000F53A0410F53A0410F53A0410F53A041083
:10017000F53A0410F53A0410F53A0410F53A041073
:10018000F53A0410F53A0410F53A0410F53A041063
:10019000F53A0410F53A0410F53A0410F53A041053
:1001A000F53A0410F53A0410F53A0410F53A041043
:1001B000F53A0410F53A0410F53A0410F53A041033
:1001C000F53A0410F53A0410F53A0410F53A041023
:1001D000F53A0410F53A041010B5054C237833B9FC
:1001E000044B13B1044800E000BF0123237010BD8D
:1001F0000C0C01300000000030570510074B10B503
:100200001BB10749074800E000BF0748036803B96E
:1002100010BD064B002BFBD09847F9E7000000000B
:10022000100C013030570510080C013000000000A0
:10023000164B002B00D1144B9D46402292029A1A75
:10024000924600218B460F461348144A121A09F0B1
:1002500029FC0F4B002B00D098470E4B002B00D0F1
:1002600098470020002104000D000D48002802D00E
:100270000C480CF0AFFA09F0AFFB2000290001F0A8
:10028000FDFE09F099FBC04600000800E857013068
:1002900000000000000000000C0C0130E84E0130AE
:1002A000D5C7041049DB041080B582B000AF02004E
:1002B000FB1D1A70FB1D1B787F2B0ED80949FB1DF7
:1002C0001B785BB25B09FA1D127810001F220240F6
:1002D0000120904002009B005A50C046BD4602B02B
:1002E00080BDC04600E100E0B0B582B000AF0200C2
:1002F0003960FB1D1A70FB1D1B787F2B28D82F4CF3
:10030000FB1D1B785BB29B082C49FA1D127852B278
:100310009208C03292005258F91D09780800032152
:100320000140C900FF2088400100C94311403A68DC
:100330009201FF201040FA1D1278150003222A4076
:10034000D200904002000A43C0339B001A5131E0B2
:100350001B4CFB1D1B781A000F231340083B990808
:10036000174AFB1D1B7818000F230340083B9B080E
:1003700006339B00D31804331B68FA1D1278100053
:1003800003220240D200FF2090400200D2431A40D4
:100390003B689B01FF201840FB1D1B781D000323B9
:1003A0002B40DB00984003001A438B1D9B00E31891
:1003B00004331A60C046BD4602B0B0BD00E100E0A3
:1003C00000ED00E080B582B000AF78607B68013B53
:1003D0000C4A934201D9012310E00B4B7A68013A91
:1003E0005A6001235B4203211800FFF77DFF064B93
:1003F00000229A60044B07221A6000231800BD46B1
:1004000002B080BDFFFFFF0010E000E080B500AF4C
:1004100003F084FE124B1B68032B01D003F09AFCFF
:10042000104B1B689BB103F09BFD03007BB10E4A90
:100430000E4B1100180006F0CBF80B4B40F20042B7
:100440000021180009F02EFB064B00221A60084B11
:100450001B685A1C064B1A60C046BD4680BDC0468C
:10046000280C01302C0C0130300C0130383B0510C9
:10047000AC46013080B584B000AF7860074B1B6894
:10048000FB60C046054B1A68FB68D21A7B689A422B
:10049000F8D3BB681800BD4604B080BDAC4601303F
:1004A00080B500AF154B1B6A0122134053B1134BAB
:1004B00001221A62124B180009F09EFB114B042214
:1004C0001A6017E00D4B1B6A0222134073B10B4BED
:1004D00002221A620C4B180009F08EFB094B022213
:1004E0001A600A4B1A680A4B1A6003E0094B18009D
:1004F00009F082FBC046BD4680BDC04600400050AA
:100500003C3B051030100130583B0510AC46013023
:1005100038100130703B051080B500AF134B1B6ADB
:100520000422134053B1114B04221A62104B1800DD
:1005300009F062FB0F4B05221A6013E00B4B1B6A9C
:100540000822134053B1094B08221A620A4B1800C3
:1005500009F052FB074B06221A6003E0074B180014
:1005600009F04AFBC046BD4680BDC0464040005031
:10057000883B051030100130A03B0510703B051082
:1005800080B500AF154B1B6A1022134073B1134B9B
:1005900010221A62124B180009F02EFB114B012297
:1005A0001A60114B1A68114B1A6013E00B4B1B6A4F
:1005B0002022134053B1094B20221A620C4B180021
:1005C00009F01AFB074B03221A6003E0094B1800DD
:1005D00009F012FBC046BD4680BDC04640410050F8
:1005E000B83B051030100130AC46013038100130F6
:1005F000D03B0510703B051080B582B000AF78602D
:100600003960044B180005F0E3FFC046BD4602B058
:1006100080BDC046E83B051080B586B000AF78606D
:1006200039607B68052B04D0224B180005F0D0FF01
:100630003CE03B6804331B681622BA181E491800B8
:1006400009F0E4FA3B6808331B681022BA181B490A
:10065000180009F0DBFA3B680C331B680C22BA184F
:100660001649180009F0D2FA3B6810331B680822BB
:10067000BA181249180009F0C9FA3B69FF22134061
:100680003B61FB68FF221340FB60BB68FF22134005
:10069000BB601623FB1818883B69D9B2FB68DAB235
:1006A000BB68DBB213F038F913F00EF9BD4606B0A3
:1006B00080BDC046F83B0510003C0510043C051009
:1006C00080B584B000AF786039607B68192B04D0A6
:1006D000124B180005F07CFF1DE00023FB6015E0C5
:1006E000FB6801339B003A68D3181B680822BA18CC
:1006F0000B49180009F08AFAFB689BB2BA6811002E
:10070000180013F041F9FB680133FB60FB68172BFD
:10071000E6DD13F0D9F8BD4604B080BDF83B051006
:10072000043C051080B582B000AF0200FB1D1A70BA
:10073000FB1D1B785BB2413B252B10D89A000C4B5C
:10074000D3181B689F460A230DE00B230BE00C23F4
:1007500009E00D2307E00E2305E00F2303E0FB1D56
:100760001B78303BDBB21800BD4602B080BDC046EE
:1007700078440510B0B586B000AF786039607B680A
:10078000012B04D1694B180005F022FFCBE03B6838
:1007900004331B6866490222180009F029FB030094
:1007A000002B00D09AE07B68022B04D15F4B18002D
:1007B00005F00EFFB7E03B6808331B68180009F02E
:1007C000E9FA02000123134053B93B6808331B6860
:1007D000180009F0DFFA020040F2FF139A4204D930
:1007E000544B180005F0F4FE9DE000237B612FE0E0
:1007F0003B6808331A687B69D31800229A560F2386
:10080000FB181A700F23FB181B782F2B18D90F23F6
:10081000FB181B78392B04D90F23FB181B78402BAE
:100820000ED90F23FB181B78462B04D90F23FB1876
:100830001B78602B04D90F23FB181B78662B04D977
:100840003D4B180005F0C4FE6DE07B6901337B6110
:100850003B6808331B68180009F09CFA02007B69AA
:100860009A42C5D8354B40F200120021180009F019
:1008700019F900233B6126E03B69002B00DA0133C4
:100880005B101D003B6808331A683B69D3181B785E
:100890005BB21800FFF746FF03001B01DCB23B68A8
:1008A00008331A683B690133D3181B785BB2180010
:1008B000FFF738FF0300E318DBB25AB21F4B5A555B
:1008C0003B6902333B613B6808331B68180009F041
:1008D00061FA02003B699A42CED820E0174B40F201
:1008E00000120021180009F0DDF83B6804331C6891
:1008F0003B6804331B68180009F04CFA0300FE2B18
:1009000007D83B6804331B68180009F043FA02005B
:1009100000E0FF22094B2100180009F0ADFA084B56
:10092000180005F055FEBD4606B0B0BD083C0510E8
:10093000403C0510443C0510603C051000000130AF
:100940007C3C051080B5254FBD4402AF244B40F2DE
:10095000883CBC446344180040F200231A00002184
:1009600009F0A0F81F4B40F2883CBC4463441800D7
:1009700040F280131A00002109F094F81A4B40F25B
:100980008432BA181360194B194A381D40F280118D
:1009900005F03CFE40F28433FB181968154A40F21A
:1009A0008413F8183B1D00930B0040F2002105F062
:1009B0002DFE40F28413FB18180012F0CDFF40F218
:1009C0008413FA180C4B1100180005F001FEC04604
:1009D000BD4640F288339D4480BDC04670FCFFFF99
:1009E000FCFDFFFF7CFCFFFF843C05100000013094
:1009F000543D0510603D0510383B051080B582B0B0
:100A000000AF786039607B68012B04D10B4B180074
:100A100005F0DEFD0FE03B6804331B680849032244
:100A2000180009F0E5F903002BB912F0BDFF054BE2
:100A3000180005F0CDFDBD4602B080BD683D051033
:100A4000B03D0510B43D051080B584B000AF12F084
:100A50008BFF03007B600023FB6030E0FB68180025
:100A600012F04AFF03000BB12E4B00E02E4BF96849
:100A70002E481A0005F0ACFDFA6813005B009B18C5
:100A8000BB6011E07A68BB68DA40130001221340B2
:100A90000BB1244B00E0244BB96825481A0005F03F
:100AA00097FDBB680133BB60FB685A1C13005B00F9
:100AB0009A18BB689A42E5DCFB680133FB60FB686F
:100AC000072BCBDD1B4B180005F082FD1A4B1800DD
:100AD00005F07EFD7B689B0F012213400BB1114B8B
:100AE00000E0114B154A1900100005F071FD7B68FC
:100AF000002B01DA0B4B00E00B4B114A19001000E0
:100B000005F066FD12F018FF03000BB1054B00E085
:100B1000054B0C4A1900100005F05AFDC046BD46B1
:100B200004B080BDC43D0510CC3D0510D43D05107A
:100B3000E83D0510FC3D0510003E0510143E051073
:100B4000343E0510583E051080B51D4FBD4400AF22
:100B5000786039607B68012B04D11A4B180005F0CE
:100B600037FD27E03B68043319680C23FB1840F27B
:100B70007F22180009F080F90C23FB18180012F0EE
:100B8000C3FE030040F28C22BA18136040F28C239B
:100B9000FB181B68002B04DA0B4B180005F018FD3E
:100BA00008E040F28C23FB181A68084B110018006B
:100BB00005F00EFDBD4640F290239D4480BDC04629
:100BC00070FDFFFF883E0510A43E0510C03E0510D5
:100BD00080B582B000AF786039607B68022B04DC9E
:100BE0000D4B180005F0F4FC13E03B6808331A685D
:100BF0003B6804331B681900100003F00DF9030073
:100C00003BB93B6808331A68044B1100180005F023
:100C1000DFFCBD4602B080BDDC3E0510003F051084
:100C200080B582B000AF78603960064B180005F0DF
:100C3000CFFC054B180005F0CBFCC046BD4602B00A
:100C400080BDC0461C3F0510283F051080B582B00E
:100C500000AF786039600B490B4B0422180009F093
:100C6000C7F8030023B9094B180005F0B1FC05E0F3
:100C7000054B054A0449064805F0AAFCC046BD4696
:100C800002B080BD343F0510000001303C3F05102C
:100C9000643F051080B582B000AF786039607B6832
:100CA000022B07D13B6804331A68044B110018006B
:100CB00005F08EFCC046BD4602B080BD383B051035
:100CC00080B500AF034B180005F082FCC046BD465E
:100CD00080BDC046903F051080B500AF034B1800A3
:100CE00005F076FCC046BD4680BDC046983F051065
:100CF00080B500AF044A054B1100180005F068FCF0
:100D0000C046BD4680BDC04600000130383B0510DE
:100D100080B582B000AF064B7B607A68054B11004E
:100D2000180005F055FCC046BD4602B080BDC04667
:100D3000B83F0510383B051080B582B000AF064BB8
:100D40007B607A68054B1100180005F041FCC04635
:100D5000BD4602B080BDC046CC400510383B0510F2
:100D600080B500AF214B180005F032FC204B180075
:100D700005F02EFC1F4B180005F02AFC1E4B180036
:100D800005F026FC1D4B180005F022FC1C4B18003A
:100D900005F01EFC1B4B180005F01AFC1A4B18003E
:100DA00005F016FC194B180005F012FC184B180042
:100DB00005F00EFC174B180005F00AFC164B180046
:100DC00005F006FC154B180005F002FC144B18004A
:100DD00005F0FEFB134B180005F0FAFB124B180050
:100DE00005F0F6FBC046BD4680BDC046D8410510A3
:100DF000E0410510E8410510F441051000420510DE
:100E000008420510104205101C420510244205102E
:100E10002C420510344205103C4205104442051096
:100E20004C420510544205106042051080B584B054
:100E300000AF12F0A1FD12F097FD03007B600023CC
:100E4000FB60FB685A1CFA6040F2681293FBF2F2F6
:100E500040F268114A439B1A180005F0F5FB0300A5
:100E60003B600023BB6018E07A68BB68DA4013007F
:100E7000012213403BB1BB689BB23A6811001800D5
:100E800012F082FD06E0BB689BB22E4A11001800EA
:100E900012F07AFDBB680133BB60BB68172BE3DD42
:100EA00012F012FD0A20FFF7E5FA274B1B68A3BBDF
:100EB000264B1B68BBB9264B1B78FF2B05D0244B58
:100EC0001B780133DAB2224B1A70214B1B781A00BF
:100ED000204B1100180008F02DFE1D4B1B78180048
:100EE00012F05AFD19E01C4B1B68B3B9184B1B7864
:100EF000012B05D9164B1B78013BDAB2144B1A7043
:100F0000134B1B781A00134B1100180008F012FE47
:100F10000F4B1B78180012F03FFD104B1B68032B82
:100F200007D00E4B1B68042B03D00C4B00221A6019
:100F300087E70B4B180008F05FFEC046BD4604B0C3
:100F400080BDC04670707000504900504C48005041
:100F5000000101306842051048480050301001304F
:100F60007842051080B584B000AF0200FB1D1A70F6
:100F700012F002FD0023FB601CE0FB68012213401D
:100F80003BB1FB1D1B789BB20021180012F0FCFC4A
:100F900007E0FB1D1B789BB20A4A1100180012F0F3
:100FA000F3FC12F091FC40F22C10FFF763FAFB689F
:100FB0000133FB60FB68042BDFDDC046BD4604B097
:100FC00080BDC046FFFFFF0080B584B000AF0023A6
:100FD000FB600023BB6000237B60FA68644B110058
:100FE000180008F0A7FDFB68DBB21800FFF7BAFF96
:100FF000FB687A68B968180012F0A6FC5D4B1B68A4
:10100000002B3CD15C4B1B68D3B95C4B1B78FF2B8E
:1010100005D05A4B1B780133DAB2584B1A70574B34
:101020001B781A00564B1100180008F083FD534B33
:101030001B78180012F0B0FC524B00221A603DE001
:10104000514B1B68002B39D14C4B1B78012B05D918
:101050004A4B1B78013BDAB2484B1A70474B1B785E
:101060001A00474B1100180008F064FD434B1B7831
:10107000180012F091FC434B00221A601EE03E4B18
:101080001B6863B9BB680133BB60BA683F4B110092
:10109000180008F04FFD3B4B00221A600EE03A4B5F
:1010A0001B685BB9BB68013BBB60BA68374B11007A
:1010B000180008F03FFD334B00221A60314B1B68CB
:1010C000012B21D1324B1A68324B1B68D31A40F2E4
:1010D000F412934218D9FB680133FB600023BB6014
:1010E000FA68234B1100180008F024FDFB68DBB2FE
:1010F0001800FFF737FFFB68182B01DD1823FB6092
:10110000204B00221A6025E01E4B1B68022B21D1C8
:101110001F4B1A681F4B1B68D31A40F2F4129342FC
:1011200018D9FB68013BFB600023BB60FA68104BD9
:101130001100180008F0FEFCFB68002B02DA002307
:10114000FB6004E0FB68DBB21800FFF70BFF0D4B00
:1011500000221A600B4B1B68032B04D0094B1B6841
:10116000042B00D044E7C046BD4604B080BDC04655
:101170008C420510504900504C480050000101308D
:10118000684205103010013048480050A442051054
:10119000AC4601303810013090B583B000AF12F08A
:1011A000EBFB00237B6009E07B6898B26423642238
:1011B000642112F0B1FB7B6801337B607B68172BE5
:1011C000F2DD12F081FB924B1C88914B1B881A00B8
:1011D000904B9200D358180005F036FA030019001E
:1011E000200012F0D1FB12F06FFBA7E08A4B1B68C6
:1011F000002B3DD1864B1B88864A99008A58511C8A
:10120000844A9B009950824B1B881800804B1B8896
:101210001A00804B9200D35840F2681293FBF2F20E
:1012200040F268114A43991A7A4B8200D150784BA8
:101230001B881A00774B9200D258784B1100180087
:1012400008F078FC724B1C88714B1B881A00714B9C
:101250009200D358180005F0F7F903001900200098
:1012600012F092FB12F030FB0A20FFF703F943E083
:101270006B4B1B68002B3FD1654B1B88654A99005F
:101280008A58511E634A9B009950614B1B881A0073
:10129000604B9200D358002B0EDA5D4B1B88180070
:1012A0005B4B1B881A005B4B9200D3586933FF33AA
:1012B0001900584B8200D150554B1B881A00554BD2
:1012C0009200D258574B1100180008F033FC504BD5
:1012D0001C884F4B1B881A004E4B9200D3581800A5
:1012E00005F0B2F903001900200012F04DFB12F0D6
:1012F000EBFA0A20FFF7BEF84B4B1B68052B03D017
:10130000494B1B68062B02D1474B00221A60424B07
:101310001B689BB9424B1B6883B940F2E830FFF76A
:10132000A9F8414B1B68042B03D03F4B1B68032BD0
:1013300004D13E4B180008F05FFC65E03A4B1B6897
:10134000002B00D152E7384B1B68052B00D14DE72D
:10135000354B1B68062B00D148E701235B423B60FD
:10136000314B1B68012B07D1294B1B881A00304BCE
:101370009200D3583B6022E02B4B1B68022B07D115
:10138000234B1B881A002B4B9200D3583B6016E06E
:10139000254B1B68032B07D11D4B1B881A00264BBE
:1013A0009200D3583B600AE01F4B1B68042B06D108
:1013B000174B1B881A00214B9200D3583B601A4BE5
:1013C00000221A603B68013300D1FCE63B685A1EDC
:1013D0001B4B1100180008F0ADFB0D4B1C880C4B8B
:1013E0001B881A000B4B9200D358180005F02CF9FB
:1013F00003001900200012F0C7FA3B689BB2013BC2
:101400009AB2034B1A80DEE6BD4603B090BDC046DB
:10141000341001300401013048480050B442051036
:101420004C480050C042051030100130CC4205102D
:10143000B8390510D83A0510783A0510183A051051
:10144000D442051080B500AF054B01221A60C0469A
:10145000034B1B68002BFBD1C046BD4680BDC04678
:101460002C0C013080B586B000AF00237B6164494D
:10147000644B0422180008F0D3FAFFF7E3FF0023BF
:101480003B61B1E0604B1B68002B54D03B69082BDB
:1014900051D17B695A1C7A615A4A2321D1540023C5
:1014A000FB6008E07B695A1C7A61564A2021D154BE
:1014B000FB680133FB60554B1B68002B00DA0133DE
:1014C0005B101A1FFB689A42ECDC7A694D4BD2180C
:1014D0004F4B1000190007231A0008F0A1FA7B698E
:1014E00006337B610023BB6008E07B695A1C7A618C
:1014F000444A2021D154BB680133BB60434B1B6875
:10150000002B00DA01335B101A1FBB689A42ECDC37
:101510007B695A1C7A613B4A2321D1547B695A1C4E
:101520007A61384A0D21D1547B695A1C7A61354A57
:101530000A21D15455E000237B6041E07B686BB108
:101540003B695BB1314B1B685A1E7B689A4205D0E0
:10155000304B1B685A1E3B699A4206D17B695A1C64
:101560007A61284A2321D15427E02B4B3A69322152
:1015700051437A688A189200D358012B06D17B69AF
:101580005A1C7A611F4A4021D15416E0224B3A6915
:10159000322151437A688A189200D358022B06D11F
:1015A0007B695A1C7A61174A6F21D15405E07B6927
:1015B0005A1C7A61134A2021D1547B6801337B6025
:1015C000124B1B687A689A42B8DB7B695A1C7A61B5
:1015D0000C4A0D21D1547B695A1C7A61094A0A21AF
:1015E000D1543B6901333B610A4B1B683A699A420B
:1015F00000DA47E7FFF726FFC046BD4606B080BDCC
:10160000E0420510300C01304C37013064010130EC
:10161000E8420510680101303C100130B0B584B0DB
:1016200000AFB860F9603A607B603A6A7B6AB8687C
:10163000F96807F0CDFC03000C0025001C003A6897
:101640007B68B86AF96A07F0C3FC02000B0020004F
:10165000290007F035FA03000C0025001C003A6A47
:101660007B6A386B796B07F0B3FC02000B0020003B
:10167000290006F0FFFD03000C00180021003A6865
:101680007B6806F099FA03000C0018002100BD46A3
:1016900004B0B0BDF0B589B006AF38607960002203
:1016A0002C4B3868796805F0EFF8030013B100237C
:1016B00000244AE00022284B3868796805F0E4F8F5
:1016C0000300B3B100250026386879680023224C56
:1016D000049305940023214C0293039400231D4C92
:1016E000009301942A003300FFF798FF03000C00D9
:1016F0002BE000221A4B3868796805F0C5F8030022
:1017000013B10023154C20E00022164B386879688D
:1017100005F0BAF80300B3B10025104E38687968B7
:101720000023104C04930594002300240293039497
:1017300000230B4C009301942A003300FFF76EFF47
:1017400003000C0001E00023002418002100BD4626
:1017500003B0F0BD0000E8BF0000D0BF0000F03FC4
:101760000000D03F0000E83F90B583B000AF386084
:1017700079600022084B3868796807F029FC03007B
:101780000C0018002100FFF785FF03000C00180073
:101790002100BD4603B090BD0000E03F90B583B08E
:1017A00000AF386079603B687C6818002100FFF763
:1017B00071FF03000C0018002100BD4603B090BD6E
:1017C00090B583B000AF386079600022084B38686C
:1017D000796806F0F1F903000C0018002100FFF70A
:1017E00059FF03000C0018002100BD4603B090BD56
:1017F0000000E03FF0B5A5B000AF12F0BDF8E54B3A
:101800001A68E54B1B68D31A0522B3FBF2F380225A
:10181000BA1813600C23FB18180060231A0000216B
:1018200008F040F90023842240F2080CBC446244D2
:10183000136098E0D94B842240F2080CBC44624407
:1018400012685200D35C1A00D54B1B785BB2D31AD6
:10185000180006F01BF9031CFB67D04A842340F2F2
:10186000080CBC4463441B685B00D31801331B782D
:101870001A00CC4B1B785BB2D31A180006F006F99D
:10188000031CBB67F96FF86F05F026FE031C1E1CD6
:10189000B96FB86F05F020FE031C191C301C05F051
:1018A000A7FA031C181C07F085FF02000B001000AC
:1018B000190011F02FFD02000B001000190007F0B5
:1018C000C9FF031C7B678023FB18186806F02EF9FC
:1018D000031C796F181C05F01BF80300B3B38023B9
:1018E000FB18186807F02EFF38607960786F07F0F2
:1018F00061FF02000B003868796807F069FB02009D
:101900000B0011000C008021090659400D00002237
:10191000A54B2000290006F0ADFC02000B001000D2
:10192000190011F079FC02000B001000190007F0FB
:1019300091FF031C3B670C23FB18842240F2080C28
:10194000BC44624412689200396FD150842340F243
:10195000080CBC4463441B680133842240F2080C29
:10196000BC4462441360842340F2080CBC446344CA
:101970001B68172B00DC5DE78C4B1B68180006F01A
:10198000D5F8031C8A49181C05F0BEFB031CFE2178
:101990008905181C05F0CCFE031C802240F2080CBF
:1019A000BC4462441360FE218905802340F2080C88
:1019B000BC446344186804F0ABFF03003BB1FE2352
:1019C0009B05802240F2080CBC44624413608023D3
:1019D00040F2080CBC446344186807F0EBFE0300B7
:1019E0000C0018002100FFF7BFFE0022714B07F02A
:1019F00067F803000C001A0023006721082038183C
:101A000044181000190004F0FDFF03002370802328
:101A100040F2080CBC446344186807F0CBFE030096
:101A20000C0018002100FFF7B9FE0022614B07F0FF
:101A300047F803000C001A0023006621082038181C
:101A400044181000190004F0DDFF03002370802308
:101A500040F2080CBC446344186807F0ABFE030076
:101A60000C0018002100FFF7ABFE0022514B07F0DD
:101A700027F803000C001A002300652108203818FD
:101A800044181000190004F0BDFF03002370002368
:101A90008422BA18136071E00C23FB188422BA1850
:101AA00012689200D358FE218905181C04F030FFFB
:101AB000030043B10C23FB188422BA181268920069
:101AC000FE218905D1508423FB181B689CB2672333
:101AD00040F2080CBC4463441B78180005F0D6FFA4
:101AE0000C23FB188422BA1812689200D358191CD0
:101AF00005F0F2FC031C181C04F06CFF0300DDB2BF
:101B0000662340F2080CBC4463441B78180005F0BF
:101B1000BDFF0C23FB188422BA1812689200D35818
:101B2000191C05F0D9FC031C181C04F053FF03001A
:101B3000DEB2652340F2080CBC4463441B781800F5
:101B400005F0A4FF0C23FB188422BA181268920037
:101B5000D358191C05F0C0FC031C181C04F03AFFF4
:101B60000300DBB232002900200011F0D5FE8423EF
:101B7000FB181B6801338422BA1813608423FB18F6
:101B80001B68172B88DD11F09FFEC046BD4625B0AF
:101B9000F0BDC046AC460130503701307001013015
:101BA0006C0101306D01013000004440B04601304D
:101BB0000000A04100E06F4090B589B000AFD04B6D
:101BC000180004F005FDCF4B00221A60CE4B012215
:101BD0001A60CE4B07221A70CC4B07225A70CC4B9E
:101BE00010221A70CA4B07225A700423FB6100238B
:101BF000BB6140F2F4137B61C64B1B683B6111F083
:101C0000BBFE11F061FEC44B1B68002B2ED0C24BF3
:101C10001B68042B0BD0C04B1B68032B07D0BE4B9B
:101C20001B68012B03D0BC4B1B68022B1ED1BA4B87
:101C30001B68032B02D1FB69042B14D1B64B1B6824
:101C4000042B02D1FB69032B0DD1B34B1B68012B75
:101C500002D1FB69022B06D1AF4B1B68022B05D1C9
:101C6000FB69012B02D0AC4B1B68FB61AB4B1B68C3
:101C700013BBAB4B1B68FBB9A24B1B685A425341C9
:101C8000DBB21A009F4B1A609E4B1B6883B1FFF7B3
:101C9000E9FB9D4B1B68013BA24AA34840F200416F
:101CA00004F0B4FCFFF7CEFB40F2D070FEF7E2FB8D
:101CB00040F2F410FEF7DEFB924B1B684BB1964BE3
:101CC0001B68032B00D184E1934B1B68042B00D1CC
:101CD0007FE1FFF78FFD8C4B1B68192B07D88A4BD0
:101CE0001B681B0140F2F412D31A7B6101E06423EC
:101CF0007B61884B1A683B69D21A7B699A4282D908
:101D0000804B1B68002B00D07DE7824B1B683B613A
:101D10007D4B1B68013B7D4A5B00D31801331B7868
:101D20001800794B1B685A1E784B5200D35C19007F
:101D30007E4B32224243521892000021D150724B06
:101D40001B68FB6019E0FB685A1E704B5200D15CA7
:101D50006E4BFA685200D154FB68013B6B4A5B0042
:101D6000D31801331978694AFB685B00D318013333
:101D70000A1C1A70FB68013BFB60FB68002BE2DC6D
:101D8000FB69022B0FD002DC012B05D020E0032BD6
:101D900017D0042B0ED01BE05C4B5B78013BDAB212
:101DA0005A4B5A7014E0594B5B780133DAB2574BF7
:101DB0005A700DE0554B1B780133DAB2534B1A7051
:101DC00006E0524B1B78013BDAB2504B1A70C0460A
:101DD0004E4B5B7818004D4B1B781900534B322249
:101DE000424352189200D358012B15D0474B1B7811
:101DF00093B1464B1B781A004D4B1B68013B9A422E
:101E00000AD0424B5B783BB1404B5B781A00494BA0
:101E10001B68013B9A4203D13F4B00221A60D8E075
:101E20000023BB60394B5A78394B5B789A4231D1E9
:101E3000364B1A78364B1B789A422BD1354B1A68A1
:101E40003D4B1A6011F070FD0300C922B3FBF2F2A2
:101E5000C9214A439B1ADBB2643BDBB25AB2374B0F
:101E60001A7011F061FD0300C922B3FBF2F2C9211F
:101E70004A439B1ADBB2643BDBB25AB2304B1A7056
:101E8000214B1B685A1C204B1A60BB690133BB6194
:101E90000123BB60254B42F210720021180007F0AD
:101EA00001FE00237B6015E0184A7B685B00D318B5
:101EB00001331B781800154B7A685200D35C190067
:101EC0001A4B32224243521892000121D1507B68B2
:101ED00001337B607A680C4B1B689A42E4D30B4B4E
:101EE0005B781800094B1B781900104B32224243D3
:101EF000521892000121D150BB68002B4ED03FE018
:101F0000F04205104C370130B0460130DC3E013064
:101F1000D83E0130AC460130301001304848005006
:101F20004C48005030430510300C01303C1001305B
:101F30006401013068010130503701306C0101301B
:101F40006D01013011F0F0FC0300404A1268023AC2
:101F5000B3FBF2F14A439B1ADBB20133DAB23C4BDA
:101F60005A7011F0E1FC03003A4A1268023AB3FBDE
:101F7000F2F14A439B1ADBB20133DAB2344B1A70E6
:101F8000334B5B781800324B1B781900324B3222EE
:101F9000424352189200D358002BD3D12C4B5B787C
:101FA00018002B4B1B7819002B4B3222424352183E
:101FB00092000221D150FFF755FA284B1B68013BD4
:101FC000274A284840F2004104F020FBFFF73AFA84
:101FD00019E6BB69312B0ADC224B234A13CA13C30F
:101FE0001168196012791A71FFF72CFA14E0BB69B5
:101FF000312B11DD1B4B1D4A13CA13C313CA13C364
:1020000013CA13C303CA03C31188198092789A7044
:10201000FFF718FA11F068FCBB69154A934205D125
:10202000144B180004F0D4FA11F056FC01F0A4FF90
:1020300040F6B830FEF71EFA0F4B1B68032B01D198
:1020400001F070FDC046BD4609B090BD6801013089
:10205000D83E0130640101303C100130B0460130FF
:1020600030430510300C0130404305105443051037
:10207000FFFFFF7F844305103010013080B500AFB3
:10208000644B180007F0B8FD00F018F9624B1B68AC
:1020900040F2E83253431800FEF794F900F0A0F93B
:1020A0005E4B1B78180011F077FC11F00DFC01F06D
:1020B0005FFE5B4A5B4B1100180001F077FE5A4A45
:1020C0005A4B1100180001F071FE594A594B11008A
:1020D000180001F06BFE584A584B1100180001F02F
:1020E00065FE574A574B1100180001F05FFE564A33
:1020F000564B1100180001F059FE554A554B11007E
:10210000180001F053FE544A544B1100180001F01E
:102110004DFE534A534B1100180001F047FE524A3E
:10212000524B1100180001F041FE514A514B110071
:10213000180001F03BFE504A504B1100180001F00E
:1021400035FE4F4A4F4B1100180001F02FFE4E4A4A
:102150004E4B1100180001F029FE4D4A4D4B110065
:10216000180001F023FE4C4A4C4B1100180001F0FE
:102170001DFE4B4A4B4B1100180001F017FE4A4A56
:102180004A4B1100180001F011FE494B1A68494BE7
:102190001100180007F0CEFC454B1B68012B0AD03C
:1021A00001DC2BB110E0022B08D0032B09D00BE08F
:1021B000FEF73CFE08E0FEF707FF05E0FEF7ECFF48
:1021C00002E0FFF7F9FCC0463B4B1B68042B0CD127
:1021D000374B1B685A1C364B1A60354B1B68032B58
:1021E00013DD334B00221A600FE0334B1B68032BC7
:1021F0000BD12F4B1B685A1E2D4B1A602C4B1B68A2
:10220000002B02DA2A4B00221A602B4B00221A60A4
:10221000BBE7C046A4430510A40101300001013012
:10222000F9050410C443051019060410CC43051029
:10223000C1060410D0430510490A0410DC43051000
:10224000490B0410E4430510FD090410EC4305108C
:1022500045090410F443051075070410FC430510EC
:10226000390D041004440510110D0410104405101C
:10227000210C0410184405104D0C04101C440510CA
:10228000D90C041020440510950C041024440510AA
:10229000C10C04102C440510D10B0410344405105B
:1022A000F10C04103C440510610D0410604205104F
:1022B000280C0130444405103010013080B500AFC7
:1022C000424B01220421180000F0ACF8404B0122DF
:1022D0000321180000F0A6F83E4B0122032118004C
:1022E00000F0A0F8394B00220321180000F09AF802
:1022F000374B00220C21180000F094F8364B0022D6
:102300003021180000F08EF8304B01220321180014
:1023100000F0E6F82E4B01220C21180000F0E0F846
:102320002D4B01223021180000F0DAF8274B012252
:102330000021180000F0A6F8244B0122012118000A
:1023400000F0A0F8224B01220221180000F09AF8B8
:102350001F4B01220321180000F094F81E4B0122AC
:102360000421180000F08EF81B4B012205211800F3
:1023700000F088F81020FDF797FF1120FDF794FF7B
:102380001520FDF791FF114B35225A63104B352272
:102390005A63114B35225A630C4B0C4A5269032184
:1023A0000A435A610A4B0A4A52690C210A435A618C
:1023B000094B094A526930210A435A61074B1800F8
:1023C00007F01AFCC046BD4680BDC0460040005024
:1023D000404000508040005040410050544405109F
:1023E00080B500AF0B490C4B0022180000F0AAF991
:1023F00002F0D4FA00F0FCF93520FDF755FF074B49
:1024000010225A60064B180007F0F6FBC046BD4686
:1024100080BDC046894B04101C47051000000C50BD
:102420006C44051080B586B000AFF860B9607A6082
:1024300000237B611FE001227B699A401300BA6888
:102440001A4001217B6999400B009A4210D1FB6828
:102450001B687A695200032191400A00D2431A4056
:102460007B695B00796899400B001A43FB681A602E
:102470007B6901337B617B690F2BDCD9C046BD468C
:1024800006B080BD80B584B000AFF860B9607A60F6
:10249000FB689B690121BA6891400A00D2431A4047
:1024A0007B68190EBB6899400B001A43FB689A6160
:1024B000FB68DB690949BA6891400A00D2431A40B7
:1024C0007B681B02190ABB6899400B001A43FB6822
:1024D000DA61C046BD4604B080BDC04601000100BF
:1024E00080B586B000AFF860B9607A6000237B6188
:1024F0001AE0BA687B69DA4013000122134083B105
:10250000FB681B6B7A695200032191400A00D24399
:102510001A407B695B00796899400B001A43FB689D
:102520001A637B6901337B617B690F2BE1D9C0465C
:10253000BD4606B080BD80B584B000AFF860B9601C
:102540007A6000231800BD4604B080BD80B586B017
:1025500000AFF860B9607A607B687B611EE0C046BE
:10256000134B9A6980231B041340002BF8D1104AA7
:10257000BB68591CB9601B785BB21360BB681B78E1
:102580005BB20A2B0AD1C046094B9A6980231B040F
:102590001340002BF8D1064B0D221A607B695A1E9E
:1025A0007A61002BDBD17B681800BD4606B080BD88
:1025B0000000075080B584B000AFF860B9607A6061
:1025C000C046084B9B6944F200021340002BF8D12F
:1025D000044B1B685AB2BB681A7001231800BD4631
:1025E00004B080BD0000075080B586B000AFF86031
:1025F000B9607A6000237B610AE07B69FA68D318CE
:102600007A69B9688A1812781A707B6901337B611C
:102610007B685A1E7A60002BEFD1C046BD4606B0DB
:1026200080BD000080B586B000AF0200FB1D1A70AF
:1026300001F068FA020080235B051A4080235B05E5
:102640009A4202D11A4B3B6101E01A4B3B610023D5
:102650007B6125E07B691B013A6940F2085C6244BA
:102660009B18FB60FB681B68BB60BB680F221A40AD
:10267000FB1D1B789A4210D17B691B013A6940F21D
:102680000C5C62449B18FB60FB681B68BB60FB68CA
:10269000BA6802210A431A6005E07B6901337B6155
:1026A0007B690B2BD6D9C046BD4606B080BDC0465F
:1026B00000000C5000000C4080B586B000AF020056
:1026C000FB1D1A7001F01EFA020080235B051A4000
:1026D00080235B059A4202D1184BFB6001E0184B46
:1026E000FB6000233B611DE03B691B01FA6840F27F
:1026F000085C62449B187B617B691B68BB60BB689C
:102700000F221A40FB1D1B789A4208D13B691B011E
:10271000FA6840F20C5C62449B187B6105E03B69FF
:1027200001333B613B690B2BDED97B691B680222BD
:1027300013401800BD4606B080BDC04600000C50D6
:1027400000000C4080B586B000AFF860B9607A60D8
:1027500001F0D8F9020080235B051A4080235B0555
:102760009A4202D11C4B7B6101E01C4B7B611C4BEC
:10277000FA681A601B4BBA681A601B4B7A681A60B9
:10278000174B1B681B6807331B781A00174B1A601E
:102790007B6940F2D0721A6101F0B4F90200802323
:1027A0005B051A4080235B059A4208D10A490A4A10
:1027B0009023D3580122134390228B5007E00749FE
:1027C000064A9023D3580122134390228B50C046CF
:1027D000BD4606B080BDC04600000C5000000C4055
:1027E000B4460130883701308C370130A001013008
:1027F00080B500AF01F086F9020080235B051A4026
:1028000080235B059A4208D11F491F4A9023D35861
:102810000122934390228B5007E01C491B4A9023CE
:10282000D3580122934390228B5001F06BF90200A0
:1028300080235B051A4080235B059A4204D1124B2A
:1028400040F20F125A6003E0104B40F20F125A6030
:1028500001F058F9020080235B051A4080235B05D4
:102860009A4207D1084B084A126840F20F110A43F6
:102870001A6006E0054B054A126840F20F110A4340
:102880001A60C046BD4680BD00000C5000000C40E0
:1028900080B582B000AF786004497B6808221800D8
:1028A000FFF7A2FEC046BD4602B080BD54370130DE
:1028B00080B500AF01F026F9020080235B051A40C5
:1028C00080235B059A4201D12C4B00E02C4B2D4814
:1028D00008221900FFF788FE2A4B1B781A00602394
:1028E0001340202B05D0402B0BD08BB900F0BCF946
:1028F00040E0254B1B68002B39D0234B1B689847C1
:1029000035E0224B1B68A3B3204B1B68984730E08F
:1029100001F0F8F8020080235B051A4080235B0574
:102920009A4206D11A4B1A4A126802210A431A60C7
:1029300005E0184B174A126802210A431A6001F099
:10294000E1F8020080235B051A4080235B059A4270
:1029500006D1114B104A126802210A431A6009E09D
:102960000E4B0E4A126802210A431A6002E0C0466A
:1029700000E0C046C046BD4680BDC04600010C50C8
:1029800000010C4054370130883701308437013062
:102990000C050C500C050C401C050C501C050C4083
:1029A00080B584B000AFA74B00221A700023FB60F3
:1029B000A54BDB79FB60FB681B02FB60A24B9B799C
:1029C0001A00FB689B18FB609F4BDB78222B00D919
:1029D00004E19A009D4BD3181B689F46FB68122B9D
:1029E00000D91223FB609A4B1B681B68FA68110020
:1029F000180000F03FFD20E1954B1B685B68033336
:102A00001B78BB60924B1B685B6802331B781A0013
:102A1000BB681B02D318BB60FA68BB689A420CD92A
:102A2000BB68FB608B4B1A68FB68B3FBF2F14A434F
:102A30009B1A13B9834B01221A70854B1B685B6884
:102A4000FA681100180000F015FDF6E0804B1B68D5
:102A50001B6903331B787B607D4B1B681B6902334A
:102A60001B781A007B681B02D3187B60FA687B68AE
:102A7000934200D91300FB60754B1B681B69FA6811
:102A80001100180000F0F6FCD7E0FB68092B00D914
:102A90000923FB606E4B1B689A696B4B1B799B008B
:102AA000D3181B683B606A4B1B685A683B68D31895
:102AB000FA681100180000F0DDFCBEE0644B1B68F2
:102AC0005A69614B1B799B00D3181A68FB689A42BC
:102AD00013D25F4B1B685A695B4B1B799B00D31861
:102AE0001B68FB605B4B1A68FB68B3FBF2F14A435F
:102AF0009B1A13B9534B01221A70554B1B68DA68A5
:102B0000514B1B799B00D3181B68FA681100180001
:102B100000F0B0FC91E04C4B9B78032B2FD84C4B32
:102B20001B689A68484B9B789B00D3181B681B78DE
:102B30001A00FB689A4214D2454B1B689A68424BB4
:102B40009B789B00D3181B681B78FB60414B1A686D
:102B5000FB68B3FBF2F14A439B1A13B9394B0122CC
:102B60001A703B4B1B689A68374B9B789B00D318B5
:102B70001B68FA681100180000F07CFC5DE000F0B2
:102B8000C1FF020080235B051A4080235B059A4247
:102B900006D1314B304A126802210A431A6005E01F
:102BA0002E4B2E4A126802210A431A6000F0AAFF37
:102BB000020080235B051A4080235B059A4206D100
:102BC000274B274A126802210A431A6035E0254B39
:102BD000244A126802210A431A602EE000F092FF94
:102BE000020080235B051A4080235B059A4206D1D0
:102BF000194B194A126802210A431A6005E0174B63
:102C0000164A126802210A431A6000F07BFF020094
:102C100080235B051A4080235B059A4206D1104B46
:102C20000F4A126802210A431A6005E00D4B0D4A53
:102C3000126802210A431A60C046C046BD4604B06D
:102C400080BDC04680370130543701301045051033
:102C5000B4460130A00101300C050C500C050C40AD
:102C60001C050C501C050C4090B589B000AF00F05D
:102C700049FF020080235B051A4080235B059A42CE
:102C800004D1C94BFB61C94BBB6103E0C84BFB617D
:102C9000C84BBB61C84B00221A60C84B00221A60A7
:102CA000C74B1B785BB2002B00DB08E2C44B5B78A0
:102CB000062B5AD003DC002B00D1ADE0CFE1082B6E
:102CC00002D00A2B58D0CAE100F01CFF020080237A
:102CD0005B051A4080235B059A4201D1B94C00E0A4
:102CE000B94C00F00FFF020080235B051A408023DF
:102CF0005B059A4202D1B54B1B6801E0B44B1B68DF
:102D0000E318FB60FA68B34B1B68DBB2137000F08A
:102D1000F9FE020080235B051A4080235B059A427E
:102D200006D1AD4BAC4A126880210A431A6005E017
:102D3000AA4BAA4A126880210A431A6000F0E2FEF8
:102D4000020080235B051A4080235B059A4203D171
:102D5000A34B01221A6002E0A24B01221A6000215B
:102D6000002000F059FD00F06BFBFFF719FE002179
:102D7000002000F051FD63E300F0C4FE0200802358
:102D80005B051A4080235B059A4201D18D4C00E01F
:102D90008D4C00F0B7FE020080235B051A408023B3
:102DA0005B059A4202D1894B1B6801E0884B1B6886
:102DB000E318FB60FA688C4B1B68DBB2137000F001
:102DC000A1FE020080235B051A4080235B059A4226
:102DD00006D1814B804A126880210A431A6005E0BF
:102DE0007E4B7E4A126880210A431A6000F08AFEF8
:102DF000020080235B051A4080235B059A4203D1C1
:102E0000774B01221A6002E0764B01221A60002102
:102E1000002000F001FD13E3694B1B78802B4DD19E
:102E20001723FB1800221A70704B1B685B6807336E
:102E30001B781A00402313403BB11723FB181722BD
:102E4000BA18127801210A431A70684B1B685B6834
:102E500007331B781A00202313405BB1644B1B78A7
:102E6000DBB2DB18D9B21723FB181722BA18127875
:102E70000A431A7000F046FE020080235B051A40E8
:102E800080235B059A4201D14E4C00E04E4C00F08D
:102E900039FE020080235B051A4080235B059A42BD
:102EA00002D14A4B1B6801E0494B1B68E318FB60E9
:102EB000FB681722BA1812781A705BE0404B1B7837
:102EC000812B21D100F01EFE020080235B051A40F9
:102ED00080235B059A4201D13A4C00E03A4C00F065
:102EE00011FE020080235B051A4080235B059A4295
:102EF00002D1364B1B6801E0354B1B68E318FB60C1
:102F0000FB6800221A7035E02D4B1B78822B31D1E3
:102F10002B4B1A790B23FB180F210A401A7000F073
:102F2000F1FD020080235B051A4080235B059A4275
:102F300001D1244C00E0244C00F0E4FD0200802389
:102F40005B051A4080235B059A4202D11F4B1B6828
:102F500001E01F4B1B68E318FB60FC680B23FB18A8
:102F60001B781800FFF7A8FB03000BB1012300E05A
:102F70000023237000F0C6FD020080235B051A4089
:102F800080235B059A4201D10E4C00E00E4C00F00C
:102F9000B9FD020080235B051A4080235B059A423D
:102FA00028D10A4B1B6827E000000C5000D00450C9
:102FB00000000C4000D00440603701306837013019
:102FC0005437013000010C5000010C4000050C503A
:102FD00000050C407837013008050C5008050C40FE
:102FE00004050C5004050C407C370130B446013018
:102FF0005C370130CF4B1B68E3180133FB60FB6883
:1030000000221A7000F07EFD020080235B051A404A
:1030100080235B059A4206D1C74BC74A12688021BC
:103020000A431A6005E0C54BC44A126880210A436E
:103030001A6000F067FD020080235B051A408023C0
:103040005B059A4203D1BE4B02221A6002E0BD4BDF
:1030500002221A600021002000F0DEFBF0E100F007
:1030600051FD020080235B051A4080235B059A42D4
:1030700006D1B54BB44A126802210A431A6005E032
:10308000B24BB24A126802210A431A6000F03AFDBC
:10309000020080235B051A4080235B059A4206D11B
:1030A000AB4BAB4A126802210A431A60C8E1A94B34
:1030B000A84A126802210A431A60C046C0E1A64B22
:1030C0005B780B2B00D98CE19A00A44BD3181B68BA
:1030D0009F46A14B9B78002B4AD19F4B1B791A002E
:1030E0000F2313407B6000233B613DE0FA693B699D
:1030F00040F208511B01D3185B181B680F221A40BD
:103100007B689A422DD1964B1A683B69DA401300CE
:10311000012213402BBBFA693B6940F20C511B01A1
:10312000D3185B181B68022293431A00F9693B69A4
:1031300040F20C501B01CB181B181A60FA693B694E
:1031400040F208511B01D3185B181B68802293437F
:103150001A00F9693B6940F208501B01CB181B1893
:103160001A603B6901333B613B690B2BBED906E01A
:10317000794B9B78012B02D17A4B00221A7000F018
:10318000C1FC020080235B051A4080235B059A4244
:1031900006D1694B684A126880210A431A6005E02B
:1031A000664B664A126880210A431A6000F0AAFC46
:1031B000020080235B051A4080235B059A4203D1FD
:1031C0005F4B00221A603BE15E4B00221A6037E140
:1031D000614B9B781A00644B1A6000F093FC02006C
:1031E00080235B051A4080235B059A4206D1524B2F
:1031F000514A126880210A431A6005E04F4B4F4A3A
:10320000126880210A431A6000F07CFC02008023CF
:103210005B051A4080235B059A4203D1484B00228C
:103220001A600DE1474B00221A6009E14A4B9B7876
:103230001A004E4B1A604E4B1B6813B14C4B1B6867
:10324000984700F05FFC020080235B051A40802352
:103250005B059A4206D1384B374A126880210A43EF
:103260001A6005E0354B354A126880210A431A601E
:1032700000F048FC020080235B051A4080235B05B8
:103280009A4203D12E4B00221A60D9E02D4B002226
:103290001A60D5E0304B1B781A000F23134063B936
:1032A0002D4B9B78032B08D12B4BDB782BB9BB69BB
:1032B0001B6806221A43BB691A60274B9B7843B9E7
:1032C000254B1B790F221340DBB21800FFF7AAF938
:1032D00006E0214B9B78012B02D1224B01221A7070
:1032E00000F010FC020080235B051A4080235B0580
:1032F0009A4206D1104B104A126880210A431A6084
:1033000005E00E4B0D4A126880210A431A6000F056
:10331000F9FB020080235B051A4080235B059A427B
:1033200003D1074B00221A608AE0064B00221A6084
:1033300086E0C04600050C4008050C5008050C400E
:1033400004050C5004050C400C050C500C050C40F9
:103350001C050C501C050C40543701309C450510D1
:10336000943701305C3701307437013078370130E1
:1033700090370130344B9B781A00344B1A60344B31
:103380001B682BB1324B1A68304B1B6818009047F2
:1033900000F0B8FB020080235B051A4080235B0528
:1033A0009A4206D12B4B2B4A126880210A431A609D
:1033B00005E0294B284A126880210A431A6000F070
:1033C000A1FB020080235B051A4080235B059A4223
:1033D00003D1224B00221A6032E0214B00221A60F6
:1033E0002EE000F08FFB020080235B051A40802353
:1033F0005B059A4206D11B4B1A4A126802210A4306
:103400001A6005E0184B184A126802210A431A6034
:1034100000F078FB020080235B051A4080235B05E7
:103420009A4206D1114B114A126802210A431A60CE
:1034300005E00F4B0E4A126802210A431A60C0468B
:10344000C046BD4609B090BD543701307C370130CD
:103450008C37013008050C5008050C4004050C5051
:1034600004050C400C050C500C050C401C050C50C0
:103470001C050C4090B585B000AF786039605B4B9F
:103480001B683A689A425BD9584B1B687A68D21815
:10349000574B1A60554B1B683A68D21A554B1A6045
:1034A00000F030FB020080235B051A4080235B059F
:1034B0009A4206D1504B504A126880210A431A6042
:1034C00005E04E4B4D4A126880210A431A6000F015
:1034D00019FB020080235B051A4080235B059A429A
:1034E00001D1474C00E0474C00F00CFB0200802368
:1034F0005B051A4080235B059A4202D1424B1B6850
:1035000001E0424B1B68E318FB60F868374B1A6810
:103510007B681900FFF768F800F0F4FA02008023D6
:103520005B051A4080235B059A4204D1384A2F4B31
:103530001B68136056E0374A2C4B1B68136051E040
:103540002B4B00221A602B4B00221A6000F0DAFA93
:10355000020080235B051A4080235B059A4206D156
:10356000254B254A126880210A431A6005E0234B47
:10357000224A126880210A431A6000F0C3FA02004E
:1035800080235B051A4080235B059A4201D11C4CC5
:1035900000E01C4C00F0B6FA020080235B051A40E4
:1035A00080235B059A4202D1174B1B6801E0174B41
:1035B0001B68E318FB60FB683A6879681800FFF73E
:1035C00013F800F09FFA020080235B051A40802365
:1035D0005B059A4203D10E4B3A681A6002E00D4B2C
:1035E0003A681A60C046BD4605B090BDA0010130E2
:1035F000603701306837013008050C5008050C4071
:1036000000010C5000010C4000050C5000050C405E
:1036100004050C5004050C4090B583B000AF704B0E
:103620001B68002B00D18DE06D4B1A686D4B1B6839
:103630009A4247D900F066FA020080235B051A40DF
:1036400080235B059A4201D1674C00E0674C00F093
:1036500059FA020080235B051A4080235B059A42D9
:1036600002D1634B1B6801E0624B1B68E3187B606F
:103670007868614B19685B4B1B681A00FEF7B4FF52
:1036800000F040FA020080235B051A4080235B05AE
:103690009A4204D1594A534B1B68136003E0584ABD
:1036A000504B1B6813604F4B1A68534B1B689A189A
:1036B000514B1A604B4B1A68494B1B689A1A484B7E
:1036C0001A6088E000F01EFA020080235B051A40B1
:1036D00080235B059A4201D1434C00E0434C00F04B
:1036E00011FA020080235B051A4080235B059A4291
:1036F00002D13F4B1B6801E03E4B1B68E3187B6027
:1037000078683D4B1968364B1B681A00FEF76CFF52
:1037100000F0F8F9020080235B051A4080235B0566
:103720009A4204D1354A2E4B1B68136003E0344A99
:103730002B4B1B681360304B00221A60284B002271
:103740001A6048E02F4B1B786BBB2E4B5B78052B28
:1037500029D100F0D7F9020080235B051A408023AD
:103760005B059A4202D1284B9B6801E0274B9B687E
:103770007B60274B1B687A689A4214D07B6893B9A8
:1037800000F0C0F9020080235B051A4080235B052E
:103790009A4204D11C4A1E4B1B68936003E01B4AEB
:1037A0001B4B1B6893601B4B1B78DBB29BB100F07B
:1037B000A9F9020080235B051A4080235B059A4229
:1037C00003D10E4B00221A6002E00D4B00221A605A
:1037D000104B00221A70C046BD4603B090BDC046D3
:1037E00068370130A001013000010C5000010C408D
:1037F00000050C5000050C406037013004050C50EA
:1038000004050C405437013000000C5000000C40FF
:10381000743701308037013080B582B000AF7860F6
:103820003960104B7A681A600F4B00221A600F4BF8
:103830003A681A6000F066F9020080235B051A40BE
:1038400080235B059A4204D1094A0A4B1B68136026
:1038500003E0094A074B1B681360C046BD4602B02F
:1038600080BDC046643701306C370130703701309D
:1038700014050C50A001013014050C4090B583B024
:1038800000AF324B1A68324B1B689A4259D200F093
:1038900039F9020080235B051A4080235B059A42B8
:1038A00002D12C4B1B6801E02B4B1B687B6000F0A6
:1038B00029F9020080235B051A4080235B059A42A8
:1038C00001D1264C00E0264C00F01CF902008023B8
:1038D0005B051A4080235B059A4202D1214B1B688D
:1038E00001E0214B1B68E3183B60204B1B683968E3
:1038F0007A681800FEF778FE1C4B1A687B68D218AD
:103900001A4B1A60114B1A687B68D2180F4B1A6059
:103910000E4B1A680E4B1B689A4212D200F0F2F856
:10392000020080235B051A4080235B059A4204D184
:10393000084A0F4B1B68136003E0074A0C4B1B68D7
:103940001360C046BD4603B090BDC0466C37013021
:103950007037013014050C5014050C4000010C5058
:1039600000010C4010050C5010050C40643701306C
:10397000A001013080B582B000AF00F0C3F80200B2
:1039800080235B051A4080235B059A4202D1274BB6
:103990003B6001E0264B3B60264B00221A60264B21
:1039A00000221A60254B00221A60254B00221A6063
:1039B000244B00221A60244B00221A60234B082259
:1039C0000021180006F06EF800237B6015E03A68CD
:1039D0007B6840F208511B01D3185B181B688022DA
:1039E00093431A0039687B6840F208501B01CB18DA
:1039F0001B181A607B6801337B607B680B2BE6D950
:103A000000F080F8020080235B051A4080235B05EC
:103A10009A4203D1054B00229A6002E0044B002237
:103A20009A60C046BD4602B080BDC04600000C5042
:103A300000000C40603701306837013064370130D6
:103A40006C37013070370130943701305437013012
:103A500080B582B000AF786005F0A8FF030058225F
:103A60001A6001235B421800BD4602B080BD80B5DC
:103A700082B000AF7860396005F098FF03005822EB
:103A80001A6001235B421800BD4602B080BD80B5BC
:103A900082B000AF786005F089FF030058221A60F9
:103AA00000231800BD4602B080BD80B584B000AFD1
:103AB000F860B9607A6005F079FF030058221A6057
:103AC00001235B421800BD4604B080BD0649074A89
:103AD000074B9B1A03DD043BC858D050FBDC00F0B9
:103AE00015F8FCF7A5FB00003C570510000001305D
:103AF0000C0C0130FEE7C046ABBE034B7446984742
:103B00002047C0467046F0473725041080B500AF07
:103B1000024B034A9A60C046BD4680BD00ED00E0FE
:103B20000000041090B58FB000AF094B180002F0F0
:103B30004FFD3B1D074A13CA13C303CA03C33B1DF2
:103B4000180002F045FDC046BD460FB090BDC0460E
:103B5000FC460510C446051090B5B1B000AF7860C2
:103B6000BF23FB1800221A703C23FB18180078238F
:103B70001A00002105F096FF00F0FEF9BF23FB18A4
:103B80001C78444A7B681100180006F0ABF901006C
:103B90003C23FB18A200D150BF23FB181A783C230A
:103BA000FB189200D35813B9FFF7BCFF6EE0BF2398
:103BB000FB18BF22BA18127801321A70BF23FB1803
:103BC0001C78344B1900002006F08CF901003C23CE
:103BD000FB18A200D150BF23FB181B781D2B08D85F
:103BE000BF23FB181A783C23FB189200D358002BF4
:103BF000DDD1B723FB18BF22BA1812781A70002340
:103C0000B822BA1813602CE03C23FB181868B823BC
:103C1000FB181A6813009B009B189B001E4A9B18F8
:103C2000190006F06BF80300A3B91B49B823FB1871
:103C30001A6813009B009B189B00CB1810331B685D
:103C4000B722BA1812783C21791810009847FFF76C
:103C500069FF1BE0B823FB181B680133B822BA18B0
:103C60001360B823FB181B681F2BCDDD0823FB183E
:103C70000A4A13CA13C313CA13C313CA13C30823AC
:103C8000FB18180002F0A4FCFFF74CFFBD4631B052
:103C900090BDC046004705109C3B0130D84605103A
:103CA00090B583B000AFFC1D00F086F903002370CF
:103CB000FB1D1B785BB2082B14D00D2B02D0002B00
:103CC00039D020E0204B1B6800221A701F4B1800CF
:103CD00002F07EFC1E4B1800FFF73EFF1A4B1C4AF9
:103CE0001A602DE0184B1A68194B9A4225D9FB1D12
:103CF0001B785BB2180000F09DF9134B1B685A1E2D
:103D0000114B1A6019E0104B1B681A00104BD31AA4
:103D100040F2FF32934212DCFB1D1B785BB21800AD
:103D200000F088F9084B1B68591C074A1160FA1DFE
:103D300012781A7003E0C04602E0C04600E0C046B8
:103D4000C046BD4603B090BD983B0130FC4605100F
:103D50009837013080B500AF01E0FFF7A1FF00F018
:103D6000FFF80300002BF8D1C046BD4680BD00001F
:103D700080B500AF094B0A4A1A600A4B40F2802214
:103D80000021180005F08EFE074B180002F020FC01
:103D9000FFF7C8FEC046BD4680BDC046983B013017
:103DA000983701309C3B0130CC45051080B584B07C
:103DB00000AF786039600023FB6023E01549FA68A2
:103DC00013009B009B189B00CB1810331B68B3B9E2
:103DD0001049FA6813009B009B189B00CB18103306
:103DE0003A681A60FA6813009B009B189B00094A06
:103DF0009B187A681100180005F0C4FF05E0FB6805
:103E00000133FB60FB681F2BD8DDC046BD4604B004
:103E100080BDC0469C3B013080B584B000AF786067
:103E200039600023FB6026E0FA6813009B009B18B2
:103E30009B00154A9A187B681100180005F05EFF78
:103E40000300ABB97A683968104B180002F0C0FB68
:103E50000D49FA6813009B009B189B00CB18103388
:103E60001A683B6811001800FFF7A0FF012306E065
:103E7000FB680133FB60FB681F2BD5DD00231800B6
:103E8000BD4604B080BDC0469C3B013004470510D0
:103E900080B586B000AFF860B9607A6000237B61BE
:103EA0000AE07B69FA68D3187A69B9688A181278C7
:103EB0001A707B6901337B617B685A1E7A60002B24
:103EC000EFD1C046BD4606B080BD000080B586B0CB
:103ED00000AF0200FB1D1A70FFF714FE02008023E2
:103EE0005B051A4080235B059A4202D11A4B3B6165
:103EF00001E01A4B3B6100237B6125E07B691B01DC
:103F00003A6940F2085C62449B18FB60FB681B68DE
:103F1000BB60BB680F221A40FB1D1B789A4210D170
:103F20007B691B013A6940F20C5C62449B18FB60A0
:103F3000FB681B68BB60FB68BA6802210A431A6011
:103F400005E07B6901337B617B690B2BD6D9C046C9
:103F5000BD4606B080BDC04600000C5000000C40BD
:103F600080B500AF034B1B889BB2DBB21800BD4687
:103F700080BDC0464A3E013080B582B000AF01230B
:103F80003B603B6883F31088084B00221A80084B83
:103F900000221A80074B00221A8000237B607B6876
:103FA00083F31088C046BD4602B080BD4A3E013052
:103FB0004C3E01304E3E013080B584B000AF1A4B0C
:103FC0001B889BB243B3194B1B889BB25A1C91B2FE
:103FD000164A11801A00164B9B5CDAB20F23FB18AD
:103FE0001A70124B1B889BB240F2FF32934202D9E7
:103FF0000E4B00221A8001237B607B6883F31088BC
:10400000094B1B889BB2013B9AB2074B1A800023D5
:10401000BB60BB6883F310880F23FB181B785BB26F
:104020001800BD4604B080BD4A3E01304C3E013010
:10403000C44A013080B582B000AF0200FB1D1A7087
:10404000134B1B889BB240F2FF3293421CD8114B9A
:104050001B889BB25A1C91B20E4A11801A00FB1D9C
:1040600019780D4B99540B4B1B889BB240F2FF32D1
:10407000934202D9074B00221A80054B1B889BB242
:1040800001339AB2024B1A80C046BD4602B080BDD1
:10409000443E0130483E0130C446013080B582B014
:1040A00000AF0200FB1D1A70FB1D1B785BB21800ED
:1040B000FFF7C0FF044B1B68180000F02FF8C04644
:1040C000BD4602B080BDC046AC46013080B582B06E
:1040D00000AF78607B68012B09D10B4B1B68643300
:1040E0001A000A4B1A600A4B01221A6008E0064BBC
:1040F0001B6864331A00074B1A60074B01221A60D1
:10410000C046BD4602B080BDAC460130C04601305D
:1041100080480050BC4601308448005090B587B0BC
:1041200000AF8E4B1A688E4B1B689A4202D98D4B9A
:1041300000221A60894B1A688B4B1B689A4202D97D
:104140008A4B00221A608A4B1B68002B00D0A1E02A
:10415000884B1B889BB2002B00D177E0854B1B88D6
:104160009BB23B613B69402B01DD40233B61002357
:104170007B611CE0804B1B889BB25A1C91B27E4A2B
:1041800011801A007D4B9B5CD9B27D4A7B69D318A4
:104190000A1C1A70784B1B889BB240F2FF32934284
:1041A00002D9754B00221A807B6901337B617A69E1
:1041B0003B699A42DEDB0123BB60BB6883F3108856
:1041C0006C4B1B889AB23B699BB2D31A9AB2694B6B
:1041D0001A800023FB60FB6883F310883A69644B04
:1041E0001A60FFF78FFC020080235B051A408023D2
:1041F0005B059A4201D1634C00E0634CFFF782FCFF
:10420000020080235B051A4080235B059A4202D19D
:104210005E4B1B6801E05E4B1B68E31818003A69AF
:10422000574B1900FFF734FEFFF76CFC02008023A8
:104230005B051A4080235B059A4203D1554B3A69CE
:104240001A6027E0544B3A691A6023E0FFF75AFCE2
:10425000020080235B051A4080235B059A4202D14D
:104260004C4B1B6801E04C4B1B683B613B69402B8E
:1042700010D1FFF747FC020080235B051A40802322
:104280005B059A4203D1434B00221A6002E0424B85
:1042900000221A60414B1B785BB2002B5AD0404B76
:1042A0001B889BB21A0040F200439B1A1A003D4B38
:1042B0001B689A424ED300237B611BE03A4B1B885C
:1042C0009BB25A1C91B2384A11801900374B1A68B8
:1042D0007B69D3181A78364B5A54334B1B889BB2E0
:1042E00040F2FF32934202D92F4B00221A807B69A1
:1042F00001337B617A692B4B1B689A42DED3012321
:104300003B603B6883F31088264B1B689AB2244BB2
:104310001B889BB2D3189AB2214B1A8000237B6072
:104320007B6883F310881F4B00221A601B4B00220E
:104330001A70FFF7E7FB020080235B051A40802319
:104340005B059A4203D11B4B40221A6002E01A4BD4
:1043500040221A60C046BD4607B090BDAC46013051
:10436000BC46013084480050C046013080480050AF
:10437000983E0130443E0130463E0130C446013093
:10438000503E013000010C5000010C4020050C5043
:1043900020050C4024050C5024050C409C3E0130A7
:1043A0004A3E0130943E01304E3E0130903E013095
:1043B000C44A013034050C5034050C4080B582B03D
:1043C00000AFFFF79FFB020080235B051A408023AC
:1043D0005B059A4202D1C94B5B6801E0C84B5B6840
:1043E0007B60FFF78FFB020080235B051A40802370
:1043F0005B059A4205D1C14B1B6943F20F02134082
:1044000004E0BF4B1B6943F20F0213403B607B6823
:1044100004221340002B5BD0FFF774FB02008023C3
:104420005B051A4080235B059A4203D1B34B0422FB
:104430005A6002E0B24B04225A60FFF763FB0200AD
:1044400080235B051A4080235B059A4207D1AB4B62
:104450005B69012213405A1E9341DBB206E0A84B70
:104460005B69012213405A1E9341DBB2CBB1FFF7C7
:1044700049FB020080235B051A4080235B059A42BA
:1044800007D19E4B9D4A126940F2D0710A431A61CE
:104490001EE09B4B9A4A126940F2D0710A431A619E
:1044A00016E0FFF72FFB020080235B051A408023F4
:1044B0005B059A4206D1914B904A126980218A434A
:1044C0001A6105E08E4B8E4A126980218A431A6177
:1044D0007B680822134083B1FFF714FB020080239E
:1044E0005B051A4080235B059A4203D1834B082267
:1044F0005A6002E0824B08225A607B680122134016
:10450000002B67D0FFF7FEFA020080235B051A40FC
:1045100080235B059A4203D1784B01225A6002E066
:10452000774B01225A603B6801221340D3B1FFF759
:10453000E9FA020080235B051A4080235B059A425A
:1045400007D16E4B6D4A126940F2D0710A431A616D
:1045500006E06B4B6A4A126940F2D0710A431A6155
:10456000FFF708FA3B6802221340B3B1FFF7CAFA1B
:10457000020080235B051A4080235B059A4206D126
:104580005E4B5E4A126910218A431A6105E05C4B5A
:104590005B4A126910218A431A613B680422134066
:1045A000C3B1FFF7AFFA020080235B051A408023F6
:1045B0005B059A4207D1514B504A126940F2D071C3
:1045C0000A431A6106E04E4B4D4A126940F2D0711F
:1045D0000A431A617B6802221340002B00D179E163
:1045E0007B68002B42DAFFF78DFA020080235B051F
:1045F0001A4080235B059A4204D1404B8022120668
:104600005A6003E03E4B802212065A60FFF77AFAA6
:10461000020080235B051A4080235B059A4206D185
:10462000384B384A126801210A431A6005E0364BBC
:10463000354A126801210A431A60FFF763FA020043
:1046400080235B051A4080235B059A4206D12F4BDD
:104650002E4A126801210A431A6005E02C4B2C4AAD
:10466000126801210A431A60FEF722F97A68802352
:104670005B021340A3B1FFF745FA020080235B05FC
:104680001A4080235B059A4204D11C4B80225202BF
:104690005A6003E01A4B802252025A60FEF7BCFFB8
:1046A0007A6880239B021340A3B1FFF72BFA020024
:1046B00080235B051A4080235B059A4204D10F4B8F
:1046C000802292025A6003E00D4B802292025A60CF
:1046D000FFF7D4F87A688023DB02134003B3FFF7B7
:1046E00011FA020080235B051A4080235B059A4281
:1046F00010D1024B8022D2025A600FE000000C5011
:1047000000000C400C050C500C050C401C050C5016
:104710001C050C40714B8022D2025A6000F0E2F876
:104720007A6880231B031340A3B1FFF7EBF9020063
:1047300080235B051A4080235B059A4204D1684BB5
:10474000802212035A6003E0644B802212035A60F5
:1047500000F0D6F87A6880235B03134093B1FFF72B
:10476000D1F9020080235B051A4080235B059A4241
:1047700004D15B4B802252035A6003E0574B8022E6
:1047800052035A607A6880239B03134093B1FFF76A
:10479000B9F9020080235B051A4080235B059A4229
:1047A00004D14F4B802292035A6003E04B4B80228E
:1047B00092035A607A688023DB03134093B1FFF7BA
:1047C000A1F9020080235B051A4080235B059A4211
:1047D00004D1434B8022D2035A6003E03F4B802236
:1047E000D2035A607A6880231B04134093B1FFF709
:1047F00089F9020080235B051A4080235B059A42F9
:1048000004D1374B802212045A6003E0334B8022DC
:1048100012045A607A6880235B04134093B1FFF757
:1048200071F9020080235B051A4080235B059A42E0
:1048300004D12B4B802252045A6003E0274B802284
:1048400052045A607A6880239B04134093B1FFF7A7
:1048500059F9020080235B051A4080235B059A42C8
:1048600004D11F4B802292045A6003E01B4B80222C
:1048700092045A607A688023DB04134093B1FFF7F7
:1048800041F9020080235B051A4080235B059A42B0
:1048900004D1134B8022D2045A6003E00F4B8022D4
:1048A000D2045A607A6880231B05134093B1FFF746
:1048B00029F9020080235B051A4080235B059A4298
:1048C00004D1074B802212055A6003E0034B80227B
:1048D00012055A60C046BD4602B080BD00000C40C3
:1048E00000000C5080B500AF0120FFF7EFFB034B39
:1048F00000221A60C046BD4680BDC046983E0130C9
:10490000B0B500AF0020FFF7E1FBFFF7FBF80200B6
:1049100080235B051A4080235B059A4202D1164B27
:104920001A6801E0154B1A68154B1A60FFF7EAF890
:10493000020080235B051A4080235B059A4201D167
:10494000104C00E0104CFFF7DDF8020080235B05FF
:104950001A4080235B059A4202D10C4B1B6801E090
:104960000B4B1B68E3181A000A4B1A600A4B012212
:104970001A70C046BD46B0BD34050C5034050C401D
:10498000943E013000010C5000010C4030050C50E9
:1049900030050C40903E01309C3E013080B500AFA8
:1049A000624B00229A61FFF7ADF8020080235B059D
:1049B0001A4080235B059A4204D15D4B40F24022AD
:1049C0001A6003E05B4B40F240221A60FFF79AF84E
:1049D000020080235B051A4080235B059A4203D1C5
:1049E000554B08221A6002E0544B08221A60FFF768
:1049F00089F8020080235B051A4080235B059A42F8
:104A000004D14F4B40F220221A6003E04D4B40F29C
:104A100020221A60FFF776F8020080235B051A4017
:104A200080235B059A4203D1474B08221A6002E0BB
:104A3000464B08221A60FFF765F8020080235B05E9
:104A40001A4080235B059A4203D1414B41221A60F0
:104A500002E0404B41221A60FFF754F80200802325
:104A60005B051A4080235B059A4203D13A4B4822EA
:104A70001A6002E0394B48221A60FFF743F802003F
:104A800080235B051A4080235B059A4203D1344B97
:104A900022221A6002E0334B22221A60FFF732F81A
:104AA000020080235B051A4080235B059A4203D1F4
:104AB0002D4B88221A6002E02C4B88221A60FFF7E7
:104AC00021F8020080235B051A4080235B059A428F
:104AD00003D1274B40221A6002E0264B40221A6085
:104AE000FFF710F8020080235B051A4080235B0566
:104AF0009A4203D1204B43221A6002E01F4B43220B
:104B00001A60FEF7FFFF020080235B051A40802336
:104B10005B059A4203D11A4BC8221A6002E0194B76
:104B2000C8221A60C046BD4680BDC04600000C5079
:104B300008050C5008050C4000050C5000050C4001
:104B400018050C5018050C4010050C5010050C40B1
:104B500028050C5028050C4020050C5020050C4061
:104B600038050C5038050C4030050C5030050C4011
:104B700034050C5034050C4048050C5048050C40D9
:104B800040050C5040050C4090B583B000AF3B0091
:104B90001800FDF77DFE3B001B785BB2002B5BDA53
:104BA0003B005B78212B52D13B001B7913BBFEF7F6
:104BB000A9FF020080235B051A4080235B059A420F
:104BC00001D1644C00E0644CFEF79CFF020080239E
:104BD0005B051A4080235B059A4202D15F4B1B683C
:104BE00001E05F4B1B68E31818005E4B07221900B9
:104BF000FFF74EF9FEF786FF020080235B051A409F
:104C000080235B059A4206D1574B574A1268802190
:104C10000A431A6005E0554B544A126880210A4342
:104C20001A60FEF76FFF020080235B051A408023A5
:104C30005B059A4203D14E4B07221A6002E04D4BAE
:104C400007221A6000210020FEF7E6FD7DE000202B
:104C5000FFF73CF9C04678E03B005B78202B3FD063
:104C6000222B00D06DE03B001B7983B93B00DB7841
:104C70009AB2414B1A80404B1B881B021AB23B0070
:104C80009B781BB213431BB29AB23B4B1A80FEF7C0
:104C900039FF020080235B051A4080235B059A429E
:104CA00006D1314B304A126880210A431A6005E070
:104CB0002E4B2E4A126880210A431A60FEF722FF0B
:104CC000020080235B051A4080235B059A4203D1D2
:104CD000274B00221A6038E0264B00221A6034E08D
:104CE0003B001B7923B91F4B07211800FEF794FDE9
:104CF000FEF708FF020080235B051A4080235B0556
:104D00009A4206D1184B184A126880210A431A6049
:104D100005E0164B154A126880210A431A60FEF717
:104D2000F1FE020080235B051A4080235B059A4256
:104D300003D10F4B00221A6007E00E4B00221A60CD
:104D400003E00020FFF7C2F8C046C046BD4603B0EE
:104D500090BDC04600010C5000010C4000050C50F5
:104D600000050C40A801013008050C5008050C4056
:104D700004050C5004050C401C3E013080B584B085
:104D800000AFB9607A603B600F23FB18021C1A70F9
:104D90007A683B689A4206D2BA687B68D3180F22B9
:104DA000BA1812781A70C046BD4604B080BD80B5EE
:104DB00084B000AFB9607A603B600F23FB18021C1F
:104DC0001A70C046BD4604B080BD80B584B000AF47
:104DD000B9607A603B600F23FB18021C1A700F2326
:104DE000FB181B785BB233B10F23FB181B785BB247
:104DF0001800FFF753F9C046BD4604B080BD80B52A
:104E000084B000AF786039607B68FB6002E0FB68CB
:104E10000133FB60FB681B785BB223B13B685A1E11
:104E20003A60002BF3D1FA687B68D31A1800BD46AC
:104E300004B080BD80B582B000AF0200FB1D1A70C7
:104E4000FB1D1B785BB22F2B06DDFB1D1B785BB2B5
:104E5000392B01DC012300E000231A1C012313403D
:104E6000DBB21800BD4602B080BD80B584B000AF93
:104E700078600023FB600FE0FA6813009B009B182A
:104E80005B0018007B681B68591C7A6811601B78EE
:104E90005BB2C318303BFB607B681B681B785BB25E
:104EA0001800FFF7C7FF0300002BE5D1FB681800CF
:104EB000BD4604B080BD90B587B000AFF860B96062
:104EC0007A603B607B683B617B6B022213402BBBAB
:104ED0007B6B012213400BBBFB6A7B610AE07A68A3
:104EE000531C7B603B68B968FC682020A0477B6945
:104EF00001337B617A693B6B9A42F0D30EE0FB6A27
:104F0000013BFB62BA6AFB6AD318002018567A6824
:104F1000531C7B603B68B968FC68A047FB6A002BA8
:104F2000EDD17B6B0222134073B107E07A68531C0A
:104F30007B603B68B968FC682020A0477A683B69C1
:104F4000D21A3B6B9A42F1D37B681800BD4607B07A
:104F500090BD90B589B004AFF860B9607A603B60ED
:104F6000BB6B02221340002B32D17B6BB3B1BB6B06
:104F70000122134093B12823FB181B781BB9BB6B8C
:104F80000C22134053B17B6B013B7B6306E07B6AD1
:104F90005A1C7A623A6AD31830221A707A6A3B6BCA
:104FA0009A420AD27B6A1F2BF1D906E07B6A5A1C0F
:104FB0007A623A6AD31830221A70BB6B012213400E
:104FC00033B17A6A7B6B9A4202D27B6A1F2BEDD98E
:104FD000BB6B10221340002B54D0BB6B40F200423D
:104FE0001340A3B97B6A93B17A6A3B6B9A4203D0B0
:104FF0007A6A7B6B9A420AD17B6A013B7B627B6A4D
:105000002BB1FB6A102B02D17B6A013B7B62FB6AEE
:10501000102B0ED1BB6B2022134053B97B6A1F2B80
:1050200007D87B6A5A1C7A623A6AD31878221A70B7
:105030001EE0FB6A102B0ED1BB6B2022134053B134
:105040007B6A1F2B07D87B6A5A1C7A623A6AD3188C
:1050500058221A700CE0FB6A022B09D17B6A1F2BC5
:1050600006D87B6A5A1C7A623A6AD31862221A708E
:105070007B6A1F2B06D87B6A5A1C7A623A6AD3185D
:1050800030221A707B6A1F2B22D82823FB181B782A
:105090003BB17B6A5A1C7A623A6AD3182D221A7085
:1050A00016E0BB6B042213403BB17B6A5A1C7A6248
:1050B0003A6AD3182B221A700AE0BB6B08221340FD
:1050C00033B17B6A5A1C7A623A6AD31820221A706A
:1050D0003C687A68B968F868BB6B03937B6B029392
:1050E0007B6A01933B6A00932300FFF7E4FE030011
:1050F0001800BD4605B090BD90B597B008AFF860F8
:10510000B9607A603B601023FB18180020231A0056
:10511000002104F0C7FC00237B63BB6C1BB9FB6D53
:1051200010229343FB65FB6D40F20042134013B124
:10513000BB6C002B35D0BB6C3A6DB3FBF2F2396D12
:105140004A439A1A3323FB181A707B6B5A1C7A63F2
:105150003322BA18127852B2092A06DC3322BA185E
:1051600012783032D2B252B20EE0FA6D20210A40EB
:105170000AB1412200E061223321791809785218DE
:10518000D2B20A3AD2B252B210217918CA54BA6CC9
:105190003B6DB2FBF3F3BB64BB6C13B17B6B1F2B9A
:1051A000C9D93C687A68B968F868FB6D0693BB6D2D
:1051B00005937B6D04933B6D03934C23FB181B7885
:1051C00002937B6B01931023FB1800932300FFF7DE
:1051D000C0FE03001800BD460FB090BDB0B596B03C
:1051E00008AFF860B9607A603B6000237B63BB6CFA
:1051F000FA6C13431BB9BB6E10229343BB66BB6EA4
:1052000040F20042134023B1BB6CFA6C1343002BF5
:1052100040D0B86CF96CBA6DFB6D01F08DFB1C00D1
:105220001300190022003323FB180A1C1A707B6B31
:105230005A1C7A633322BA18127852B2092A06DC51
:105240003322BA1812783032D2B252B20EE0BA6EAD
:1052500020210A400AB1412200E06122332179185D
:1052600009785218D2B20A3AD2B252B21021791841
:10527000CA54BA6DFB6DB86CF96C01F05DFB0300AC
:105280000C00BB64FC64BB6CFA6C134313B17B6B06
:105290001F2BBED9BB6D3D687C68B968F868BA6ED3
:1052A00006927A6E05923A6E049203935023FB188D
:1052B0001B7802937B6B01931023FB1800932B0048
:1052C0002200FFF746FE03001800BD460EB0B0BD39
:1052D000F0B59DB006AFF860B9607A603B6000231E
:1052E0007B6500230024BB63FC633A6F7B6F386FE0
:1052F000796F01F0B9FA030093B93C687A68B9682C
:10530000F8688023FB181B680393FB6F0293032349
:105310000193C44B00932300FFF7CDFD03001BE274
:1053200001225242C04B386F796F01F0A3FA03009B
:1053300093B13C687A68B968F8688023FB181B68E9
:105340000393FB6F029304230193B84B0093230054
:10535000FFF7B1FD0300FFE101225242B44B386F69
:10536000796F01F09BFA030023B38023FB181B68BD
:10537000042213400BB1AF4B00E0AF4B8022BA18B0
:10538000126804210A400AB1042200E003223E68A8
:105390007D68BC68F8688021791809680391F96F05
:1053A00002910192009333002A002100FFF783FD50
:1053B0000300D1E10022A14B386F796F01F06EFA42
:1053C00003003BB900229E4B386F796F01F052FA0F
:1053D0000300A3B13D687A68B968F8688023FB18B8
:1053E0001B680493FB6F0393BB6F02933B6F7C6F4F
:1053F000009301942B0000F0B3F90300ACE15323B8
:10540000FB1800221A7000220023386F796F01F018
:1054100031FA03006BB15323FB1801221A703A6F63
:105420007B6F0020002103F0D3FD03000C003B67DD
:105430007C678023FB181B6840F20042134063B96D
:105440000623BB6709E07B6D5A1C7A651022BA18E7
:105450003021D154BB6F013BBB677B6D1F2B02D842
:10546000BB6F092BEFD8386F796F04F0FDF803009C
:10547000FB64F86C04F026F903000C001A0023000A
:10548000386F796F03F0A4FD03000C0018002100B1
:105490006C4ABB6FDB00D3185C681B681A002300E2
:1054A00003F00EFB03000C003B637C63386B796BED
:1054B00001F0A8FA0300BB64B86C04F043F90300E0
:1054C0000C001A002300386B796B03F081FD030098
:1054D0000C00BB63FC6300225B4BB86BF96B01F003
:1054E000DDF90300BBB1BB6C0133BB64B86C04F0E5
:1054F00029F9544ABB6FDB00D3185C681B681A009B
:10550000230001F0D5F90300B3B10023BB64FB6CA9
:105510000133FB6410E000224B4BB86BF96B01F0D8
:10552000A9F9030043B9BB6C1BB1BB6C012213404A
:1055300013B1BB6C0133BB64BB6F93BBF86C04F05D
:10554000C1F803000C001A002300386F796F03F0D4
:105550003FFD03000C00BB63FC6301231C1C002205
:10556000394BB86BF96B01F085F903000BB90023D7
:105570001C1CE3B201225340DBB243B90022324B80
:10558000B86BF96B01F08AF90300002B48D0FB6C73
:1055900001221340002B00D172E0FB6C0133FB644D
:1055A0006EE0BB6F7B641CE07B6C013B7B64786DC1
:1055B000431C7B65BA6C0A23B2FBF3F10B009B0022
:1055C0005B185B00D31ADBB23033DBB25AB2102364
:1055D000FB181A54BB6C0A22B3FBF2F3BB64BB6C1E
:1055E0001BB17B6D1F2BDFD908E0C04606E07B6D49
:1055F0005A1C7A651022BA183021D1547B6D1F2BAA
:1056000004D87B6C5A1E7A64002BF0D17B6D1F2B63
:1056100036D87B6D5A1C7A651022BA182E21D154C7
:105620002EE0C04638470510FFFFEFFF3C4705104E
:10563000FFFFEF7F444705104C47051065CDCD4176
:1056400065CDCDC1304905100000E03F786D431CA9
:105650007B65FA6C0A2392FBF3F10B009B005B184D
:105660005B00D31ADBB23033DBB25AB21023FB1823
:105670001A54FB6C0A2293FBF2F3FB64FB6C1BB124
:105680007B6D1F2BE2D900E0C0468023FB181B680E
:10569000022213401BBB8023FB181B68012213400E
:1056A000EBB1FB6FA3B15323FB181B782BB98023FD
:1056B000FB181B680C22134053B1FB6F013BFB67C7
:1056C00006E07B6D5A1C7A651022BA183021D1543D
:1056D0007A6DFB6F9A4202D27B6D1F2BF1D97B6DE5
:1056E0001F2B26D85323FB181B783BB17B6D5A1C0C
:1056F0007A651022BA182D21D1541AE08023FB18A4
:105700001B68042213403BB17B6D5A1C7A65102242
:10571000BA182B21D1540CE08023FB181B680822F7
:10572000134033B17B6D5A1C7A651022BA182021C0
:10573000D1543C687A68B968F8688023FB181B6804
:105740000393FB6F02937B6D01931023FB1800936F
:105750002300FFF7B0FB03001800BD4617B0F0BDF3
:10576000F0B5A5B006AFF863B9637A633B639023E5
:10577000FB181A685B68902179180868496801F07D
:1057800073F80300ABB101225242E04B902179182B
:105790000868496801F082F8030053B901225242B7
:1057A000DB4B902179180868496801F063F8030021
:1057B000D3B13D6B7A6BB96BF86BA023FB181B68F8
:1057C00004939C23FB181B6803939823FB181B6806
:1057D00002939023FB185C681B68009301942B00D4
:1057E000FFF776FD03007EE23B233022BA18D4187F
:1057F0000123FB7100220023902179180868496871
:1058000001F038F803000BB90023FB71FB7923701A
:105810003B2340F2300CBC4463441B7873B19023AB
:10582000FB181B689022BA1813609423FB181A689F
:1058300080231B0653409422BA181360A023FB1840
:105840001A6840F2004313401BB906239822BA1885
:1058500013609023FB185C681B683B647C643B6CA2
:105860007C6C230D3B6200237B623B6A5B055B0D16
:10587000A84A944663447B663B6C7C6C002219000A
:1058800091430D0023031E0B00232B43BB61A24B4E
:105890003343FB61BB69FC693B647C64786E03F055
:1058A00011FF9E4A9E4B03F00BF903000C001800F9
:1058B00021009C4A9C4B02F07FF903000C001D0064
:1058C0002600386C796C0022984B03F081FB0300B2
:1058D0000C0018002100964A964B03F0F1F80300E3
:1058E0000C001A0023002800310002F065F90300C3
:1058F0000C001800210003F0B7FE03007B67786FEF
:1059000003F0E0FE8C4A8D4B03F0DAF803000C0044
:105910001800210000228A4B02F04EF903000C000F
:105920001800210003F0A0FE03007B66786F03F0EF
:10593000C9FE844A844B03F0C3F803000C00250021
:105940001C00786E03F0BEFE804A814B03F0B8F86D
:1059500002000B002000290003F03AFB03000C00BA
:10596000BB65FC65BA6DFB6DB86DF96D03F0A8F809
:1059700003000C003B657C657B6E40F2FF3C63449A
:105980003B61DB177B613B691B05FB600023BB6050
:10599000BB68FC683B647C643C6C7D6CB86DF96DE5
:1059A00002000B0002F008F902000B003A627B6271
:1059B000BA6DFB6D00208021C90503F009FB0200D0
:1059C0000B00BA61FB610022624B386D796D02F009
:1059D00051FC02000B001000190000225E4B02F087
:1059E000EBF802000B00386D796D02F043FC020009
:1059F0000B00100019000022584B02F0DDF80200E5
:105A00000B00386D796D02F035FC02000B00B869AF
:105A1000F96902F0D1F802000B00386A796A02F0E5
:105A200029FC02000B001000190000223A4B02F082
:105A3000C3F802000B002000290003F041F8030026
:105A40000C003B647C64386C796C9023FB181A68FA
:105A50005B6800F023FF030063B17B6F013B7B6752
:105A6000386C796C00223C4B02F004FC03000C0003
:105A70003B647C647B6F632B04DC7B6F633301DBF3
:105A8000042300E005233B67A023FB181B6840F6B6
:105A900000021340002B00D17AE0314A314B9021B3
:105AA00079180868496800F003FF0300002B5DD0F7
:105AB00000222D4B902179180868496800F0DAFE21
:105AC0000300002B52D09823FB181A687B6F9A4270
:105AD00009DD9823FB181A687B6FD31A013B9822C3
