:10000000F83A00202D200000552000005520000067
:1000100000000000000000000000000000000000E0
:10002000000000000000000000000000552000005B
:1000300000000000000000005520000085110000B5
:1000400055200000552000005520000055200000DC
:1000500055200000552000005520000055200000CC
:1000600055200000552000005520000055200000BC
:1000700055200000552000005520000055200000AC
:10008000552000005520000055200000552000009C
:10009000552000005520000055200000552000008C
:1000A000552000005520000055200000552000007C
:1000B000552000005520000055200000552000006C
:1000C000552000005520000055200000552000005C
:1000D00055200000DD2800005520000055200000BC
:1000E000552000005520000055200000552000003C
:1000F000552000005520000055200000552000002C
:10010000552000005520000055200000552000001B
:10011000552000005520000055200000552000000B
:1001200055200000552000005520000055200000FB
:1001300055200000552000005520000055200000EB
:1001400055200000552000005520000055200000DB
:10015000552000005520000055200000E10C000053
:1001600055200000552000005520000055200000BB
:1001700055200000552000005520000055200000AB
:10018000552000005520000055200000552000009B
:10019000552000005520000055200000552000008B
:1001A000552000005520000055200000552000007B
:1001B000552000005520000055200000552000006B
:1001C000552000005520000055200000552000005B
:1001D000552000005520000010B5054C237833B998
:1001E000044B13B1044800E000BF0123237010BD8D
:1001F000042B00200000000068040100074B10B52C
:100200001BB10749074800E000BF0748036803B96E
:1002100010BD064B002BFBD09847F9E7000000000B
:10022000082B002068040100002B002000000000C3
:10023000164B002B00D1144B9D46402292029A1A75
:10024000924600218B460F461348144A121A06F0B4
:1002500089FE0F4B002B00D098470E4B002B00D08F
:1002600098470020002104000D000D48002802D00E
:100270000C4809F0D1FF06F00FFE2000290000F025
:100280009DFF06F0F9FDC04600000800F83A002086
:100290000000000000000000042B0020F8310020C6
:1002A00019A2000069B5000080B582B000AF02005D
:1002B000FB1D1A70FB1D1B787F2B0ED80949FB1DF7
:1002C0001B785BB25B09FA1D127810001F220240F6
:1002D0000120904002009B005A50C046BD4602B02B
:1002E00080BDC04600E100E0B0B582B000AF0200C2
:1002F0003960FB1D1A70FB1D1B787F2B28D82F4CF3
:10030000FB1D1B785BB29B082C49FA1D127852B278
:100310009208C03292005258F91D09780800032152
:100320000140C900FF2088400100C94311403A68DC
:100330009201FF201040FA1D1278150003222A4076
:10034000D200904002000A43C0339B001A5131E0B2
:100350001B4CFB1D1B781A000F231340083B990808
:10036000174AFB1D1B7818000F230340083B9B080E
:1003700006339B00D31804331B68FA1D1278100053
:1003800003220240D200FF2090400200D2431A40D4
:100390003B689B01FF201840FB1D1B781D000323B9
:1003A0002B40DB00984003001A438B1D9B00E31891
:1003B00004331A60C046BD4602B0B0BD00E100E0A3
:1003C00000ED00E080B582B000AF78607B68013B53
:1003D0000C4A934201D9012310E00B4B7A68013A91
:1003E0005A6001235B4203211800FFF77DFF064B93
:1003F00000229A60044B07221A6000231800BD46B1
:1004000002B080BDFFFFFF0010E000E080B500AF4C
:100410008023DB0540F20012592199508023DB052F
:1004200040F20012162199508023DB0540F20012A1
:10043000882199508023DB0540F200129B58002B45
:10044000E6D0C046BD4680BD80B500AF0A4B0B224A
:10045000DA60094B00225A60074B01221A61C0463C
:10046000054B1B6901221340002BF9D1024B9B68FD
:100470001800BD4680BDC04600C0004080B500AF3A
:100480000A4B0C22DA60094B04225A60074B012206
:100490001A61C046054B1B6901221340002BF9D19C
:1004A000024B9B681800BD4680BDC04600C000409E
:1004B00080B582B000AF0200FB1D1A700C4B042205
:1004C000DA600B4BFA1D127892005A60084B00223A
:1004D0009A60074B01221A61C046054B1B69002B2D
:1004E000FBD1034B9B681800BD4602B080BDC046DF
:1004F00000C0004080B582B000AF02003960BB1D73
:100500001A803A68BB1D1B881100180002F00EF813
:1005100000231800BD4602B001000200030084461B
:1005200080BC02BC864681F300880C4780B582B04F
:1005300000AF0200FB1D1A70084BFA1D12781A70EA
:1005400000231800BD4602B00100020003008446EB
:1005500080BC02BC864681F300880C47C82E002070
:1005600080B500AF01F0ECFE00231800BD4601008D
:1005700002000300844680BC02BC864681F30088EA
:100580000C47B0B582B000AF05000C001000190098
:10059000BB1D2A1C1A807B1D221C1A703B1D021CCD
:1005A0001A70FB1C0A1C1A70FB1C1C783B1D1A7865
:1005B0007B1D1978BB1D1888230001F06FFF0023F5
:1005C0001800BD4602B00100020003008446B0BC22
:1005D00002BC864681F300880C4780B500AF01F06D
:1005E00047FF00231800BD460100020003008446B7
:1005F00080BC02BC864681F300880C4780B582B07F
:1006000000AF00237B60391D044B0422180003F067
:1006100075FE7B681800BD4602B080BD842E0020A8
:1006200080B500AFFFF7EAFF03001800BD460100E8
:1006300002000300844680BC02BC864681F3008829
:100640000C4780B582B000AF01F024FBFE239B0273
:10065000180001F02DFB03007B6001F0CBFA7B68F2
:100660001800BD4602B0010002000300844680BCB1
:1006700002BC864681F300880C47000080B582B03A
:1006800000AF01F007FB0E4B180001F011FB030057
:100690007B6001F0AFFA7B680A4A944663445A4291
:1006A0005341DBB21800BD4602B001000200030056
:1006B000844680BC02BC864681F300880C47C04655
:1006C00000F90300F44F310580B584B000AF7860C5
:1006D000FFF7B7FF0300FB607B680A2B00D9A8E097
:1006E0007B689A005A4BD3181B689F46FB6801220F
:1006F00013405BB1FB685B080122134033B1FB6818
:100700009B08012213400BB1012393E0002391E0E9
:10071000FB68DB08012213405BB1FB681B09012267
:10072000134033B1FB685B09012213400BB1012375
:1007300080E000237EE0FB689B09012213405BB14F
:10074000FB68DB090122134033B1FB681B0A01225D
:1007500013400BB101236DE000236BE0FB685B0AE3
:10076000012213405BB1FB689B0A0122134033B1A5
:10077000FB68DB0A012213400BB101235AE000237E
:1007800058E0FB681B0B012213405BB1FB685B0B5D
:100790000122134033B1FB689B0B012213400BB1C4
:1007A000012347E0002345E0FB68DB0B01221340F7
:1007B0005BB1FB681B0C0122134033B1FB685B0C7F
:1007C000012213400BB1012334E0002332E0FB6827
:1007D0009B0C012213405BB1FB68DB0C0122134030
:1007E00033B1FB681B0D012213400BB1012321E043
:1007F00000231FE0FB685B0D012213405BB1FB6827
:100800009B0D0122134033B1FB68DB0D0122134025
:100810000BB101230EE000230CE0FB689B0F0122CB
:10082000134007E0FB68DB0F04E0FFF727FF03003E
:1008300000E000231800BD4604B0010002000300E0
:10084000844680BC02BC864681F300880C47C046C3
:1008500050F7000080B584B000AFF860B9607A60EE
:10086000FB680A2B01D9002360E0FB681800FFF742
:100870002BFF0300002B55D0FB680A2B55D8FB68D3
:100880009A00314BD3181B689F467A68BB681100E9
:10089000180002F05FFA49E07A68BB68110018009E
:1008A00002F0ACFA42E07A68BB681100180002F06E
:1008B000DBFB3BE07A68BB681100180002F01AFC11
:1008C00034E07A68BB681100180002F063FC2DE088
:1008D0007A68BB681100180003F080F926E07A6896
:1008E000BB681100180003F051F81FE07A68BB687C
:1008F0001100180003F08EF818E07A68BB68110048
:10090000180002F059FE11E07A68BB681100180067
:1009100003F0E6F80AE07A68BB681100180003F0FB
:10092000C3F903E002F0E6F800E0C0461800BD4657
:1009300004B0010002000300844680BC02BC86466D
:1009400081F300880C47C0467CF7000080B500AFFB
:10095000244B180006F0BAFB01F09CF9224B224A06
:10096000126808210A431A60FE239B02180001F056
:100970004FF903002BB11D4B180006F0A7FB012314
:1009800024E0FE239B02180001F092F90200184BAC
:100990001100180006F02EFBFE239B020021180018
:1009A00001F0A2F9104B104A126808218A431A601C
:1009B000FE239B02180001F07BF902000C4B110092
:1009C000180006F017FB01F015F900231800BD46CA
:1009D000010002000300844680BC02BC864681F30D
:1009E00000880C47A8F7000000C00040C0F70000D6
:1009F000D8F7000080B584B000AF78607A682B4BE0
:100A00001100180006F0F6FA7B68172B04D97B68F2
:100A10001D2B01D8002345E07A68244B11001800F3
:100A200006F0E8FA01F036F9FE239B02180001F007
:100A30003FF90300FB601E4B1D4A126808210A4360
:100A40001A60FE239B02180001F0E2F803001BB1BC
:100A5000184B180006F03AFBFE239B02180001F029
:100A600027F90200144B1100180006F0C3FA012206
:100A70007B689A4013001A00FB681A43FE239B020E
:100A80001100180001F030F9FE239B02180001F05C
:100A90000FF90200084B1100180006F0ABFA01F044
:100AA000A9F800231800BD4604B080BDF8F7000087
:100AB00000C000400CF80000D8F7000080B500AF7F
:100AC0001E20FFF797FFC046BD4600200100020030
:100AD0000300844680BC01BC864680F3008804473E
:100AE00080B500AF1F20FFF785FFC046BD46002040
:100AF000010002000300844680BC01BC864680F3EE
:100B00000088044780B500AF0A4B1A680A4B1100F1
:100B1000180006F06FFA074B1B681800BD4601006D
:100B200002000300844680BC02BC864681F3008834
:100B30000C47C046900300201CF8000080B500AFB1
:100B4000064B180006F0C2FA054B0A2200211800D5
:100B500006F008FAC046BD4680BDC04640F8000019
:100B6000202B002080B586B000AF78603E4B1B681C
:100B7000591C3D4A11603D4A9B00796899503C4B95
:100B80001B6840F2E8329A183A4B1A60364B1B68E1
:100B9000092B02DD344B00221A6000237B61324BAB
:100BA0001B68013B3B610923FB603FE03B69002B75
:100BB0001DDA3B690A331A002C4B9200D2582E4B97
:100BC0001100180006F016FA2C4BFA689200D25861
:100BD0003B690A331900254B8900CB58D31A5A1E9A
:100BE0009341DBB21A007B6913437B6118E01F4B12
:100BF0003A699200D258204B1100180006F0FAF919
:100C00001E4BFA689200D258184B39698900CB58AC
:100C1000D31A5A1E9341DBB21A007B6913437B61DE
:100C20003B69013B3B61FB68013BFB600E4B1B6872
:100C30000A3B1A003B699A42B8DD0A2006F0ECF93B
:100C40007B691BB90E4B180006F0D4F9C046BD46AF
:100C500006B00020010002000300844680BC01BCF5
:100C6000864680F300880447482B0020202B002074
:100C7000802E0020C02E002058F8000028F7000029
:100C80005CF8000080B586B000AFF860B9607A60AB
:100C90001023FB1800221A6000237B6115E07B699A
:100CA000FA68D3181B785BB2DBB20C4A10217818B3
:100CB000042106F015FA1023F918BB680222180067
:100CC00006F07EFA7B6901337B617A697B689A4220
:100CD000E5D3C046BD4606B080BDC04670F80000F2
:100CE00080B500AF074B5A68C0239B04134033B153
:100CF000054B01221A60034BC02292045A60C04681
:100D0000BD4680BD002003406C2B002080B582B022
:100D100000AF78603960114800230322042103F0FA
:100D200093FA79680D4B3822180003F0B1FA0C4B96
:100D300000221A60094B0521180003F099FAC046F9
:100D4000074B1B68002BFBD03A68044B11001800BE
:100D500003F0B0FAC046BD4602B080BD341D00208D
:100D60006C2B002080B598B002AF1023FB18180040
:100D700040231A00002106F0F5F800F08BFF002355
:100D80007B650CE07B6DDBB21800FFF791FB010087
:100D90003B007A6D9200D1507B6D01337B657B6D9A
:100DA000022BEFDD1B4B180006F090F900F022FF3C
:100DB00019493B000C221800FFF764FF00233B6534
:100DC0001CE03A6D1300DB009B189B00134A9B1834
:100DD0001149134A1020381800930B00402106F0E7
:100DE0007FF93B6D5A010F4BD2181023FB181100ED
:100DF0001800FFF78BFF3B6D01333B653B6D172BF5
:100E0000DFDD094B180006F061F9C0461800BD4649
:100E100016B080BD78F800004C2B00203000002078
:100E20007CF80000D02E002084F8000080B582B04D
:100E300000AF0200FB1D1A70FB1D1B785BB2413B2B
:100E4000252B10D89A000C4BD3181B689F460A23F9
:100E50000DE00B230BE00C2309E00D2307E00E232C
:100E600005E00F2303E0FB1D1B78303BDBB21800CD
:100E7000BD4602B080BDC046A0FA000080B582B079
:100E800000AF0200FB1D1A70FB1D1B785BB22F2BFD
:100E90001ADDFB1D1B785BB2392B04DDFB1D1B78B3
:100EA0005BB2402B10DDFB1D1B785BB2462B04DDD3
:100EB000FB1D1B785BB2602B06DDFB1D1B785BB254
:100EC000662B01DC012300E000231800BD4602B0C0
:100ED00080BDB0B586B000AFF860B9607A60172306
:100EE000FB1800221A7000233B6144E0BA683B699A
:100EF000D3181B785BB21800FFF7C0FF0300002B6C
:100F00003DD03B690133BA68D3181B785BB2180037
:100F1000FFF7B4FF030093B33B695B08FA68D4188A
:100F2000BA683B69D3181B785BB21800FFF77EFFE5
:100F300003001B01DDB23B690133BA68D3181B788B
:100F40005BB21800FFF772FF0300EB18DBB25BB275
:100F500023703B695B08FA68D31800229A5617235E
:100F6000FB181B785BB253405AB21723FB181A7058
:100F70003B6902333B613A697B689A42B6D31723D7
:100F8000FB181B781800BD4606B0B0BD80B59AB0FE
:100F900000AF78607A683A4B1100180006F02AF822
:100FA0007B680A333B660823FB18180050231A009D
:100FB000002105F0D7FF79685C23FB180822180090
:100FC000FFF787FF7B68083319005B23FB180222B9
:100FD0001800FFF77EFFFB6DDA179B185340FB6587
:100FE000FB6D402B06DD274B180006F06FF802233F
:100FF0005B4238E0FB6D1A00396E0823FB181800BD
:10100000FFF767FF03001A005B23FB181B789A4267
:1010100006D01D4B180006F059F802235B4222E06F
:1010200000237B661AE07B6E5A01184BD118082307
:10103000FB182022180006F0F1F803005BB97B6E64
:101040001800FFF7D7FC7A6E114B1100180005F05D
:10105000D1FF7B6E07E07B6E01337B667B6E172BC7
:10106000E1DD01235B421800BD461AB00100020019
:101070000300844680BC02BC864681F300880C478E
:10108000A0F80000B8F80000D0F80000D02E002032
:10109000ECF80000B0B5374CA54404AF7860364B8F
:1010A00040F2084CBC446344180040F200231A008C
:1010B000002105F057FF314B40F2084CBC4463441B
:1010C000180040F200231A00002105F04BFF7B6856
:1010D000180006F047F8020079680823FB1818008A
:1010E00006F0E0F800F0D6FD0020FFF7E1F905007A
:1010F0000120FFF7DDF904000220FFF7D9F9010014
:101100001F4B1B6840F2E832B3FBF2F30822BA1817
:1011100040F2082038180293019100942B0040F20D
:10112000002105F0DDFF00F065FD7B6840F2002244
:101130000021180005F016FF40F20823FB181800E4
:1011400006F010F8020040F20823F9187B68180036
:1011500005F0C6FEC046BD4640F208439D4400204F
:101160000100020003008446B0BC01BC864680F347
:1011700000880447E8FBFFFF00FEFFFF00FCFFFFC5
:10118000802E002080B500AF0A4B1B685A1C094B0B
:101190001A60084B1A68084B1B689A4207D3064B23
:1011A0001B6823B1FFF7CAFC034B00221A60C0463C
:1011B000BD4680BD802E0020C02E002080B584B0AA
:1011C00000AFFFF723F900F00BF94720FFF76CF8A9
:1011D000424B424A1268C02189040A431A60404BBC
:1011E00001220321180000F09DFD3E4B00221A60F1
:1011F0003D4B00221A603D4B1B6840F2E8325343DE
:101200001800FFF7DFF800F065F9394B180005F01A
:101210005DFF384BC8221A7001F092F8364B00215E
:10122000180003F057F800F035FD344B180005F0B6
:10123000E1FE00F01BFD030023B9314B180005F05F
:1012400045FF03E02F4B180005F040FFFFF7FCF8C7
:101250000300BB60BA682C4B1100180005F0CAFEF1
:10126000FFF70CF90300BB60BA68284B11001800A7
:1012700005F0C0FE0023FB600FE0FB68DBB2180046
:10128000FFF716F90300BB60BA68F968204B180035
:1012900005F0B0FEFB680133FB60FB68022BECDD60
:1012A00000F0A8FCFFF7CDF903007B607B680133F9
:1012B00002D1FFF74BFB05E07A68164B11001800CE
:1012C00005F098FEFFF7BDF9FFF74CFD124B180033
:1012D00001F06AF900F022F830BFFDE7002003407A
:1012E00040400050404800504448005094030020C3
:1012F00008F90000C82E0020842E00202CF90000E0
:1013000058F9000060F9000068F900009CF900003D
:10131000D0F9000008FA00000000002090B585B068
:1013200000AF264B264A9A60244B9B681B68BB6023
:10133000BB6883F38888214B9B6804331B68FB6080
:10134000FB6801229343FB60FB6801221340ABB9A9
:10135000FB681B0F1A0780235B059A420ED1194BBD
:10136000180005F0B3FEFB6800201C006408640050
:1013700021002200230003F039F81CE0124B180072
:1013800005F0A4FE114B180005F0A0FE104B7B6089
:101390007B6883F388880F4B0F4A1A600F4BFB6002
:1013A000FB6800201C006408640021002200230068
:1013B00003F01CF8FEE7BD4605B090BD00ED02E06D
:1013C0000000041028FA00004CFA000074FA000033
:1013D0000082003000800030FFE7FEE7018000302F
:1013E00080B500AF8023DB02180000F093FA4020A4
:1013F00000F0C4FA0021052000F0CEF92A4B0022AB
:101400000021180000F01CFA284B294A1A64802396
:10141000DB058022D205D26A26490A4040F2041137
:101420000A43DA62204B180000F084FA224B1800BD
:1014300000F080FAC0239B041F480022190000F02E
:10144000FFF90C2000F076FA1C4B1D4A1A601D4B68
:1014500030221A608023DB0543F2EE329A65802346
:10146000DB058022D205526B1204120C5A638023D2
:10147000DB058022D205526B13490A435A63134B92
:10148000180000F057FAE023DB0210480022190090
:1014900000F0D6F980231B050D481422190000F036
:1014A000CBFCC046BD4680BD9B3C80420002004054
:1014B0000E040800F8FEFFFF103D80579003002047
:1014C000006CDC02940300200000EEEE0400005FDC
:1014D0000010055080B500AF044B054A5A62034B1B
:1014E0000322DA60C046BD4680BDC04600000750FA
:1014F0006600003080B582B000AF00237B600D4BEA
:101500001B68012213403B603B6813B10A4B7B60B0
:1015100001E000237B607B681800BD4602B001003B
:1015200002000300844680BC02BC864681F300882A
:101530000C47C04600020040001BB70080B582B0D7
:1015400000AF00237B600D4B1B68022213403B6001
:101550003B681BB148F200037B6001E000237B6025
:101560007B681800BD4602B00100020003008446FB
:1015700080BC02BC864681F300880C470002004014
:1015800080B500AF00F072FE064B1B681800BD4628
:10159000010002000300844680BC02BC864681F341
:1015A00000880C479003002080B500AF00F05EFE7D
:1015B000094B1A68094B5B6B07210B40DA4013009B
:1015C0001800BD46010002000300844680BC02BC36
:1015D000864681F300880C479003002000020040FB
:1015E00080B500AF00F042FE0A4B1A680A4B5B6BF5
:1015F0001B0907210B40DA4013001800BD4601000B
:1016000002000300844680BC02BC864681F3008849
:101610000C47C046900300200002004090B593B0F4
:1016200000AF3B1D524A13CA13C313CA13C303CAE4
:1016300003C33B004F4A12681A604F4B9B6802225B
:101640001340FB634C4B1B6CBB63BA6BA023DB02E8
:1016500013401BB1494B00221A6031E0BA6B802362
:101660001B03134013B1464B3B6401E0444B3B6406
:10167000BA6B80239B0213401BB1404B3A6C1A603B
:101680001EE0BB6B9B0B032213403A00D35C7B63D1
:10169000BB6BDB05DB0D02333B63BB6B5B0A1F22BD
:1016A00013400133FB623B6C9B083A6B52005A4378
:1016B000FB6A796B4B43B2FBF3F39A002F4B1A6032
:1016C0002D4B1B6907221340BB62BB6A012B1ED145
:1016D000FB6B2BB9284B284A926802210A439A6077
:1016E000284A40F20013D358802213401BB147F61A
:1016F00000537B6402E048F200037B64FB6B93B908
:101700001D4B1D4A926802218A439A600BE0BB6A16
:10171000022B03D1194B1B687B6404E03B1DBA6AA2
:101720009200D3587B64144B1B6A0F221340013381
:101730007B627A6C7B6AB2FBF3F2134B1A60124B3A
:101740001B68124A94466344114AB3FBF2F2114BF0
:101750001A600D4B1B681800BD4613B00100020053
:101760000300844690BC02BC864681F300880C4787
:1017700038FB000058FB00000002004098030020E6
:10178000001BB700001004409003002020A10700B8
:1017900040420F009403002080B584B000AF786011
:1017A0003960234B1B6D10221340FB60204B204AF5
:1017B000126804210A431A60102000F0DFF81C4B65
:1017C0001B4A126907210A431A611A4B194AD26C43
:1017D00019490A40DA64164B154A126A0F218A43E6
:1017E00011003A680A431A627B68052B08D1114B35
:1017F000104AD26C11490A4040F203110A43DA64DC
:101800000B4B0B4A126907218A4311007A680A437D
:101810001A6100F02BFDFB682BB9054B044A1268D6
:1018200004218A431A60C046BD4604B080BDC0464C
:101830000002004000C00040FFFEFFFFF0FEFFFF7F
:1018400090B58FB000AFF860B9607A6000237B6319
:1018500000233B632023FB182A4A13CA13C31268D0
:101860001A601023FB18284A13CA13C312681A609F
:10187000FB689B0AFF221340EBB1FB689B0C032221
:101880001A401023FB189200D358204A9446634410
:101890003B633B6B3A6B1268F968890AFF2008408A
:1018A000F96849091F24214088400100C9431140BB
:1018B0007A680A431A60FB685B0E07221340EBB19B
:1018C000FB681B0F03221A402023FB189200D358F9
:1018D0000F4A944663447B637B6B7A6B1268F968AA
:1018E000490E07200840F968090D1F24214088404F
:1018F0000100C9431140BA680A431A60C046BD4698
:101900000FB090BD5CFB00006CFB000020020040AB
:101910001002004080B582B000AF7860044B044AEA
:1019200011687A680A431A60C046BD4602B080BD9D
:101930000002004080B584B000AF78600023FB60F7
:101940000023BB607B681F22134001229A401300D2
:10195000FB60094BBB607B689B0F9B00BA68D31888
:10196000BB60BB68BA681168FA680A431A60C0466F
:10197000BD4604B080BDC0460402004080B584B0BE
:1019800000AF78600C4BFB600123BB6007E0FB6895
:101990005A1EFA60002B02DC0023BB6006E0074BF6
:1019A0001B6D7A681A407B689A42F0D1BB681800B8
:1019B000BD4604B080BDC046009F24000002004028
:1019C00080B588B000AF0023FB613B1D254A12683B
:1019D0001A60254B1B6C7B617A69A023DB021340E4
:1019E00013B10023FB612FE07A6980231B031340AE
:1019F00013B11E4BBB6101E01C4BBB617A698023B4
:101A00009B02134013B1BB69FB611DE07B699B0B1B
:101A1000032213403A1DD35C3B617B69DB05DB0D80
:101A20000233FB607B695B0A1F2213400133BB60FA
:101A3000BB699B08FA6852005A43BB6839694B433B
:101A4000B2FBF3F39B00FB61FB691800BD4608B0D5
:101A5000010002000300844680BC02BC864681F37C
:101A600000880C4758FB000000020040001BB70034
:101A700090B589B000AF78600023FB610023BB61A3
:101A80000823FB18314A13CA13C312681A607B6813
:101A90002F4A934205D12F4B9B6901221340FB61D2
:101AA00045E07B682C4A934206D12A4B9B695B0830
:101AB00001221340FB613AE07B68284A934206D139
:101AC000244B9B691B0A01221340FB612FE07B68BA
:101AD000234A934206D11F4B9B695B0A01221340A4
:101AE000FB6124E07B685B0E07221340FBB17B683F
:101AF0001B0F03221A400823FB189200D358194ADF
:101B000094466344BB61BB691B687A68520E072127
:101B100011407A68120D1F20024091400A001A40BD
:101B20007B681B0D1F210B40DA401300FB61FB6932
:101B30001800BD4609B0010002000300844690BCB5
:101B400002BC864681F300880C47C0465CFB00005F
:101B50001000008000020040110000801200008090
:101B6000130000801002004090B589B000AF78608B
:101B70000023FB610023BB610823FB181B4A13CA27
:101B800013C312681A607B689B0AFF221340FBB1E3
:101B90007B689B0C03221A400823FB189200D35841
:101BA000134A94466344BB61BB691B687A68920A16
:101BB000FF2111407A6852091F20024091400A001B
:101BC0001A407B685B091F210B40DA401300FB6160
:101BD000FB691800BD4609B00100020003008446FD
:101BE00090BC02BC864681F300880C476CFB000069
:101BF0002002004080B500AF044B044A1268012166
:101C00008A431A60C046BD4680BDC04600C0004041
:101C100080B584B000AF78600023FB60FB68EBB94F
:101C2000114B2222DA60104B7A685A600E4B012267
:101C30001A61C0460C4B1B6901221340002BF9D1DD
:101C4000094B1B684022134043B1074B064A1268F8
:101C500040210A431A6001235B42FB60FB681800C5
:101C6000BD4604B080BDC04600C0004080B582B013
:101C700000AF00237B60064B1B68022213400BB1B0
:101C800001237B607B681800BD4602B080BDC04662
:101C900000C0004080B500AF044B044A1268012127
:101CA0000A431A60C046BD4680BDC04600C0004021
:101CB00080B582B000AF78600A4B0022DA60094B31
:101CC0007A685A60074B01221A61C046054B1B69AE
:101CD00001221340002BF9D1024B9B681800BD462E
:101CE00002B080BD00C0004080B582B000AF786017
:101CF00039600B4B2122DA60094B7A685A60084B35
:101D00003A689A60064B01221A61C046044B1B696F
:101D100001221340002BF9D1C046BD4602B080BD60
:101D200000C0004080B586B000AFF860B9607A604E
:101D300000237B611FE001227B699A401300BA688F
:101D40001A4001217B6999400B009A4210D1FB682F
:101D50001B687A695200032191400A00D2431A405D
:101D60007B695B00796899400B001A43FB681A6035
:101D70007B6901337B617B690F2BDCD9C046BD4693
:101D800006B080BD80B584B000AFF860B9607A60FD
:101D900000231800BD4604B080BD000080B586B0A9
:101DA00000AFF860B9607A607B687B611EE0C04676
:101DB000134B9A6980231B041340002BF8D1104A5F
:101DC000BB68591CB9601B785BB21360BB681B7899
:101DD0005BB20A2B0AD1C046094B9A6980231B04C7
:101DE0001340002BF8D1064B0D221A607B695A1E56
:101DF0007A61002BDBD17B681800BD4606B080BD40
:101E00000000075080B584B000AFF860B9607A6018
:101E1000C046084B9B6944F200021340002BF8D1E6
:101E2000044B1B685AB2BB681A7001231800BD46E8
:101E300004B080BD0000075080B588B000AFF860E6
:101E4000B9607A60FB68180000F032F803007B612B
:101E50000023FB610023BB617B695A087B689A42BF
:101E600002D20223FB610FE07A697B68B2FBF3F3D5
:101E7000FB61FB691B0EBB61BB692BB1BB69013305
:101E8000FA69B2FBF3F3FB61BA68BB691A43FB68FA
:101E90001A60FB68FA695A60BB690133FA695343F7
:101EA0007A69B2FBF3F31800BD4608B080BD0000AC
:101EB00090B58DB000AF7860314BBB620823FB1842
:101EC000304A13CA13C313CA13C303CA03C37B68BC
:101ED0002D4A934206D12D4B1800FFF7C9FD030090
:101EE000FB622AE07B682A4A934206D1294B1800FC
:101EF000FFF7BEFD0300FB621FE07B68264A9342AA
:101F000003D07B68254A934206D1254B1800FFF782
:101F1000AFFD0300FB6210E07B68224A934203D0CE
:101F20007B68214A934206D1204B1800FFF7A0FDA1
:101F30000300FB6201E00023BB62BB6AD3B1FB6A12
:101F4000022B11D17B68104A934203D07B68104A60
:101F5000934204D1FFF728FB0300BB620AE0FFF7BE
:101F60003FFB0300BB6205E00823FB18FA6A9200FE
:101F7000D358BB62BB6A1800BD460DB090BDC046C9
:101F8000001BB7007CFB0000000005400200805EE3
:101F9000000105400300C05E001005400010055020
:101FA0000400005F00110540001105500500405F6E
:101FB00080B582B000AF786004F058FF030058226B
:101FC0001A6001235B421800BD4602B080BD80B597
:101FD00082B000AF7860396004F048FF03005822F7
:101FE0001A6001235B421800BD4602B080BD80B577
:101FF00082B000AF786004F039FF030058221A6005
:1020000000231800BD4602B080BD80B584B000AF8B
:10201000F860B9607A6004F029FF030058221A6062
:1020200001235B421800BD4604B080BD0649074A43
:10203000074B9B1A03DD043BC858D050FBDC00F073
:1020400039F9FEF7F5F800007404010000000020E3
:10205000042B0020FEE7C046ABBE034B74469847F6
:102060002047C0467046F047851D000080B500AF90
:102070008023DB0540F20012592199508023DB05B3
:1020800040F20012162199508023DB0540F2001225
:10209000882199508023DB0540F200129B58002BC9
:1020A000E6D0C046BD4680BD80B500AF194B9A6AE8
:1020B0008023DB029A422AD0FFF7D8FF164B112269
:1020C0001A60154B154A5A60134B0022DA60124B06
:1020D00001221A61C046104B1B69002BFBD10E4B2D
:1020E0009B68013312D10C4B8022D2029A600A4BBA
:1020F0002122DA60084B01221A61C046064B1B6997
:10210000002BFBD18023DB0501229A60FEE7BD4650
:1021100080BDC04600F0024000C000400008200022
:1021200080B582B000AF184B00221A60164B002217
:102130005A60154B802292029A60134B8022520201
:10214000DA60114B00221A610F4B00225A610E4BCC
:1021500001229A610C4BFF221A620B237B600BE079
:10216000094B094A516A01207A68904002000A43EB
:102170005A627B68013B7B607B68032BF0DCC046C6
:10218000BD4602B080BDC04600F0024080B500AF41
:10219000294B00229A60284BFC229202DA60264BDF
:1021A000264A1A61244B04229A60234B244ADA609F
:1021B000214B244A1A61204B05229A601E4B224A69
:1021C000DA601D4B214A1A611B4B06229A601A4B9A
:1021D0001F4ADA60184B1F4A1A61174B07229A6090
:1021E000154BA022D205DA60134B1B4A1A61124B21
:1021F00001221A60194B194A126908218A431A618F
:10220000164B174ADA60174940F28022FC239B03E1
:102210008B50144A40F284231349D150114A40F2A2
:1022200088230021D1500F4A40F28C230021D15045
:10223000C046BD4680BDC046D0ED00E0E3FF0300D0
:1022400000000410E1FF0710007E8000E37F8000A3
:1022500000800030E17F0130E1FFFF5F00ED00E032
:102260000000FA0500E100E00400200080B500AFA6
:10227000FFF7A6FB02000A4B1A60FFF7CFF9020036
:10228000084B1A60074B1B68074A94466344074A89
:10229000B3FBF2F2064B1A60C046BD4680BDC04695
:1022A000980300209003002020A1070040420F0067
:1022B0009403002080B500AF054B064A9A60FFF7F3
:1022C00065FFFFF72DFFFFF7EFFEC046BD4680BD5F
:1022D00000ED00E00000000080B584B000AF020017
:1022E000FB1D1A700F23FB1808221A7016E0FB1D45
:1022F0001B785BB2002B03DA0F4B01221A6002E05D
:102300000D4B00221A600D4B01221A600B4B00226C
:102310001A60FA1DFB1D1B78DB1813700F23FB18C6
:102320001B780F22BA18591E1170002BDFD1C0463E
:10233000BD4604B080BDC0464048005044480050EF
:1023400080B584B000AF474BFB600823FB18464ABA
:1023500012881A80454B1A78BB1D1A800B23FB1874
:1023600000221A7009E00020FFF7B6FF0B23FB18CC
:102370001A780B23FB1801321A700B23FB181B78F9
:10238000032BF0D9394B1B786BB3E320FFF7A4FF85
:102390000B23FB1800221A7013E0FB685A1CFA602A
:1023A0001B781A00BB1D1B8853431B12DBB218009D
:1023B000FFF792FF0B23FB181A780B23FB1801324F
:1023C0001A700B23FB181B78022BE6D90823FB1885
:1023D0000822BA181288013A1A800823FB181B88B1
:1023E000002BD2D126E0E320FFF776FF0B23FB186A
:1023F00000221A700DE0FB685A1CFA601B78180066
:10240000FFF76AFF0B23FB181A780B23FB18013226
:102410001A700B23FB181B78022BECD90823FB182E
:102420000822BA181288013A1A800823FB181B8860
:10243000002BD8D10B23FB1800221A7009E0FF20D3
:10244000FFF74AFF0B23FB181A780B23FB18013206
:102450001A700B23FB181B78032BF0D9BD4604B070
:1024600080BDC046742B00209E030020C82E002093
:1024700080B500AF074B1B881A0013005B009B1848
:102480001A00054B0021180004F06CFDC046BD4643
:1024900080BDC0469E030020742B0020B0B584B0E0
:1024A00000AF05000C0010001900BB1D2A1C1A808B
:1024B0007B1D221C1A703B1D021C1A70FB1C0A1C7F
:1024C0001A70154B1B88BA1D12889A421FD2BB1D69
:1024D0001A8813005B009A18104BD318FB60104B3E
:1024E0001B781A00FB689B187A1D12781A700D4B26
:1024F0001B781A00FB689B183A1D12781A700A4B59
:102500001B781A00FB689B18FA1C12781A70C046D8
:10251000BD4604B0B0BDC0469E030020742B002011
:102520009C0300209D030020702B002080B584B008
:1025300000AF02003960BB1D1A80164B1B88BA1D04
:1025400012889A4221D2BB1D1A8813005B009A1888
:10255000114BD318FB60114B1B781A00FB689B18BA
:102560003A68120CD2B21A700D4B1B781A00FB6835
:102570009B183A68120AD2B21A700A4B1B781A00DA
:10258000FB689B183A68D2B21A70C046BD4604B0C8
:1025900080BDC0469E030020742B00209C030020B9
:1025A0009D030020702B002080B586B000AF7860BE
:1025B00000237B6142E000233B6139E023497A69D3
:1025C00013005B009B185A019B18CA183B69D3186B
:1025D000FF221A700023FB6024E0FB685B001A00F6
:1025E0007B689B181B781A007B699A4217D1FB689D
:1025F0005B0001337A68D3181B781A003B699A4252
:102600000DD1FB68D8B211497A6913005B009B18A1
:102610005A019B18CA183B69D318021C1A70FB6830
:102620000133FB60FB68172BD7DD3B6901333B614E
:102630003B69622BC2DD7B6901337B617B69412B86
:10264000B9DDC046BD4606B080BDC046A00300202F
:1026500080B582B000AF3A60BB1D021C1A803B1DE2
:102660000A1C1A80BB1D00229B5E002B33DB3B1D26
:1026700000229B5E002B2EDBBB1D00229B5E412BAC
:1026800029DC3B1D00229B5E622B24DCBB1D00224B
:102690009A5E3B1D0021595E114813005B009B1898
:1026A0005A019B18C3185B5CFF2B15D0BB1D002281
:1026B0009A5E3B1D0021595E094813005B009B1880
:1026C0005A019B18C3185B5C1A003B681900100084
:1026D000FFF72CFF00E0C046BD4602B080BDC046FB
:1026E000A0030020B0B588B000AF05000C001000BA
:1026F0001900BB1D2A1C1A803B1D221C1A80BB1C02
:10270000021C1A803B000A1C1A803B0000229A5EC1
:102710003B1D00215B5ED31AD9175A184A40BB1CD7
:102720000021595EBB1D00201B5ECB1AD9175B1818
:102730004B4001219A4201DC0023191CCAB21A2322
:10274000FB181A801A23FB1800229B5EDBB11823AA
:10275000FB18BA1D12881A80BB1D3A1D12881A80F8
:102760003B1D1822BA1812881A801623FB18BA1CAF
:1027700012881A80BB1C3A0012881A803B0016226D
:10278000BA1812881A80BA1DBB1C0021525E0021A3
:102790005B5E9A421BDD1423FB18BA1D12881A8057
:1027A000BB1DBA1C12881A80BB1C1422BA181288CE
:1027B0001A801223FB183A1D12881A803B1D3A001A
:1027C00012881A803B001222BA1812881A80BB1C89
:1027D0001A88BB1D1B88D31A9AB21023FB181A80C3
:1027E0003B0000229A5E3B1D00215B5ED31AD91785
:1027F0005A184A400E23FB181A801E23FA18102379
:10280000FB1800215B5E002B00DA01335B101380A4
:102810003A1D3B000021525E00215B5E9A4204DAC1
:102820001C23FB1801221A804CE01C23FB180122F8
:1028300052421A8046E01A23FB1800229B5E53B1D5
:102840003A6BBB1D0021595E3B1D00201B5E18002A
:10285000FFF7FEFE09E03A6B3B1D0021595EBB1DF0
:1028600000201B5E1800FFF7F3FE1E23FB181A88DA
:102870000E23FB181B88D31A9AB21E23FB181A804A
:102880001E23FB1800229B5E002B13DA3B1D1A88C7
:102890001C23FB181B88D3189AB23B1D1A801E23D9
:1028A000FB181A881023FB181B88D3189AB21E2312
:1028B000FB181A80BB1D00229B5E9BB201339AB2AB
:1028C000BB1D1A80BA1DBB1C0021525E00215B5E3D
:1028D0009A42B0DDC046BD4608B0B0BD80B500AF7D
:1028E000034B180001F048FDC046BD4680BDC04600
:1028F000BC2B002090B587B000AF78607B683B2B85
:1029000021DCFF237B61786803F0FEFF0022764B19
:1029100003F0F8F903000C0018002100734A744B0F
:1029200003F078FC03000C00180021000BF0A4F960
:1029300003000C001800210001F0E4FD03003B61DE
:102940000023FB60C4E07B68772B24DC7B68782263
:10295000D31A180003F0D8FF0022634B03F0D2F91A
:1029600003000C0018002100604A614B03F052FC88
:1029700003000C00180021000BF07EF903000C008E
:102980001800210001F0BEFD03007B61FF233B61C5
:102990000023FB609CE07B68B32B23DC00237B617E
:1029A000FF233B617B68783B180003F0ADFF0022FA
:1029B0004D4B03F0A7F903000C00180021004B4A0F
:1029C0004B4B03F027FC03000C00180021000BF018
:1029D00053F903000C001800210001F093FD0300DF
:1029E000FB6075E07B68EF2B24DC00237B617B6858
:1029F000F022D31A180003F087FF00223A4B03F0AD
:102A000081F903000C0018002100384A384B03F00C
:102A100001FC03000C00180021000BF02DF903004D
:102A20000C001800210001F06DFD03003B61FF2345
:102A3000FB604DE07B6840F22B12934223DC7B6805
:102A4000F03B180003F060FF0022274B03F05AF917
:102A500003000C0018002100244A254B03F0DAFB88
:102A600003000C00180021000BF006F903000C0015
:102A70001800210001F046FD03007B6100233B614B
:102A8000FF23FB6024E0FF237B6100233B617B6825
:102A900040F26812D31A180003F036FF0022124BDE
:102AA00003F030F903000C00180021000F4A104B0E
:102AB00003F0B0FB03000C00180021000BF0DCF861
:102AC00003000C001800210001F01CFD0300FB6056
:102AD0007B691A043B691B021A43FB681343180005
:102AE000BD4607B090BDC046000011407B14AE4704
:102AF000E17A843F80B584B000AFFFF7B9FC184B92
:102B00001B680A22B3FBF2F37B607A6840F2FE1383
:102B100092FBF3F10B001B025B1A5B00D31AFB6004
:102B2000FB68FF2B04DDFB6840F2FE12D31AFB604A
:102B30000023BB600AE0BB6898B2FB68D9B20023EF
:102B40000022FFF7ABFCBB680133BB60BB68172BEF
:102B5000F1DDFFF7F5FBC046BD4604B080BDC046C1
:102B6000802E0020F0B58FB000AFF860B9607A60B9
:102B70003B607B68592B01DD59237B607B680BB977
:102B800001237B607B68593302DA59235B427B6007
:102B9000786803F0B9FE6B4A6B4B03F0B3F803009F
:102BA0000C00180021000022684B02F085FD030094
:102BB0000C00180021000BF0B5F803000C00180001
:102BC000210003F069FF031CBB62FFF751FC0023E7
:102BD0007B63ACE05E4B7A6B5200D35C180002F072
:102BE00025FD031C7B625A4A7B6B5B00D3180133C3
:102BF0001B78180002F01AFD031C3B62396D786ADD
:102C000002F016FB031CB96A181C02F0E5F9031C5C
:102C10003968181C01F06CFE031C796D181C01F05A
:102C200067FE031CFB613968386A02F001FB031C74
:102C3000796D181C02F0FCFA031CB96A181C01F02B
:102C4000E3FF031C396D181C01F052FE031CBB612D
:102C5000796AB86902F0ECFA031C3B63F969386AD7
:102C600002F0E6FA031C7B610021386B01F0EAFBFD
:102C7000030023B13B6B8022120653403B63396B48
:102C8000786902F0A9F9031C181C03F0B5FE0400D2
:102C90000D00396B386B02F09FF9031C1E1C79691B
:102CA000786902F099F9031C191C301C01F020FE10
:102CB000031C181C03F0A0FE02000B0010001900FA
:102CC0000BF0DCF802000B002000290002F0F4FCFD
:102CD00003000C001800210003F0DEFE031C3B6122
:102CE000B96D386902F078F9031C181C02F030FC49
:102CF000030040F2681293FBF2F240F268114A437B
:102D00009B1AFB62FB6A002B03DAFB6A6933FF3311
:102D1000FB627B6B9CB2FB6A1800FFF7EBFD0300C4
:102D200019002000FFF702FC7B6B01337B637B6B98
:102D3000172B00DC4EE7FFF703FBC046BD460FB084
:102D4000F0BDC0466E861BF0F92109400080664048
:102D50000000002090B58BB002AF78603960FFF7BB
:102D600087FB7B680A2293FBF2F37B607B68093365
:102D700002DA09235B427B607B680A337B613B6834
:102D80003B611D4B1A687B69B2FBF3F3FB600023C8
:102D9000FB6127E0FA6913005B009A18FB68D31AFD
:102DA00040F2681293FBF2F240F268114A439B1A18
:102DB000BB61BB69002B03DABB696933FF33BB61BD
:102DC000FB691E3B1C00BB691800FFF793FD030065
:102DD000F9690093230041220020FFF783FCFB697F
:102DE0000133FB61FB69812BD4DDFFF7A9FAC046F3
:102DF000BD4609B090BDC046802E0020F0B5CE463D
:102E0000474680B58DB000AF78603960FFF730FB82
:102E10000023FB624FE0FDF7F1FB0200182392FB59
:102E2000F3F10B005B005B18DB00D21A2723FB18C1
:102E30001A70FDF7E3FB0200824B134003D5013B00
:102E4000814A134301333B62FDF7D8FB020028237C
:102E500092FBF3F10B009B005B18DB00D21A1F23DF
:102E6000FB181A707B6841F2883C63441A003B6A85
:102E70009A421DD22723FB181A78744B9200D2581D
:102E8000734B1B68D31A41F28832934210D927231F
:102E9000FB181A786E4B19686C4B9200D15027239F
:102EA000FB181B781F22BA1800215156694AD154C9
:102EB000FB6A0133FB62FDF7A1FB02000A2392FBD0
:102EC000F3F10B009B005B185B00D21AFB6A9A427D
:102ED000A1DC0023BB62A8E05D4B1A685B4BB96ABA
:102EE0008900CB58D31ABB61B86903F04DFD0200CD
:102EF0000B0011000C008021090659400D00002232
:102F0000554B2000290002F0D7FB02000B001000F7
:102F100019000AF035FF0022504B02F0F3FE0200C8
:102F20000B0017217E181000190001F0EBFA0300C6
:102F30003370474B1B682822B3FBF2F34549BA6A4A
:102F40008A18127852B29B184549BA6A52008A18F8
:102F5000013212785208D2B29B18143B40F2681228
:102F6000B3FBF2F240F268114A439B1A1800FFF7D4
:102F7000C1FC03003B613B691A0C0F23FB181A705C
:102F80003B691A0A0E23FB181A700D23FB183A69C5
:102F90001A701723FB181B78180002F047FB031C5C
:102FA0003049181C01F030FE031CBB60BB6A9EB2A6
:102FB0000F23FB181B78180002F0E8FA031CB9680D
:102FC000181C02F009F8031C181C01F083FA030016
:102FD000DBB298460E23FB181B78180002F0D6FAD5
:102FE000031CB968181C01F0F7FF031C181C01F042
:102FF00071FA0300DBB299460D23FB181B78180009
:1030000002F0C4FA031CB968181C01F0E5FF031CA8
:10301000181C01F05FFA0300DBB24A46414630005B
:10302000FFF73CFABB6A0133BB62BB6A172B00DCBB
:1030300052E7FFF785F9C046BD460DB00CBC90467F
:103040009946F0BDFF1F008000E0FFFFBC2D00206F
:10305000802E00201C2E002000408F4000E06F409A
:103060000000002000007F4390B587B000AF78607B
:103070003960FFF7FDF97B680A2293FBF2F37B606E
:103080007B68093302DA09235B427B607B680A3381
:103090003B613B68FB60164B1A683B69B2FBF3F37C
:1030A000BB6000237B611AE07B699CB27A691300E4
:1030B0001B019A1ABB68D31840F2681293FBF2F214
:1030C00040F268114A439B1A1800FFF713FC0300F3
:1030D00019002000FFF72AFA7B6901337B617B69C5
:1030E000172BE1DDFFF72CF9C046BD4607B090BDB8
:1030F000802E002080B58AB002AF78603960FFF77B
:10310000B7F97B680A2293FBF2F37B607B68093393
:1031100002DA09235B427B607B680A337B613B6890
:103120003B611B4B1A687B69B2FBF3F3FB60002326
:10313000FB6124E0FA6913005B009A18FB68D31A5C
:1031400040F2681293FBF2F240F268114A439B1A74
:10315000BB61BB69002B03DABB696933FF33BB6119
:10316000BB691800FFF7C6FB0300FA69F869009312
:1031700064230021FFF7B6FAFB690133FB61FB69A9
:10318000542BD7DDFFF7DCF8C046BD4608B080BD44
:10319000802E0020F0B5CE46474680B597B000AFF0
:1031A00078613961FFF764F97B690A2293FBF2F3D6
:1031B0007B617B695A3302DA5A235B427B617B690C
:1031C0006433FB643B69BB64964B1A68FB6CB2FBCF
:1031D000F3F37B647B6C40F2681293FBF2F240F2F3
:1031E00068114A439B1A1800FFF784FB03003B64F5
:1031F0003B6C1A0C2F2340F2100CBC4463441A7031
:103200003B6C1A0A2E2340F2100CBC4463441A7023
:103210002D2340F2100CBC4463443A6C1A707B6C52
:10322000B43340F2681293FBF2F240F268114A4361
:103230009B1A1800FFF75EFB0300BB63BB6B1A0C05
:10324000272340F2100CBC4463441A70BB6B1A0A6B
:10325000262340F2100CBC4463441A70252340F22C
:10326000100CBC446344BA6B1A707A6C182392FB3E
:10327000F3F10B005B005B18DB00D21A242340F251
:10328000100CBC4463441A70242340F2100CBC445C
:1032900063441B780C331A00182392FBF3F10B00E4
:1032A0005B005B18DB00D21A232340F2100CBC44F5
:1032B00063441A70222340F2100CBC4463440C2275
:1032C0001A7000237B65A0E0222340F2100CBC445E
:1032D00063441B78180003F057FB38607960786D01
:1032E00003F012FB02000B003868796802F092FFCD
:1032F00002000B001100B960802109065940F960F5
:103300000022494BB868F96802F0D6F902000B00B8
:10331000100019000AF034FD0022444B02F0F2FCC8
:1033200002000B0021211020381846181000190047
:1033300001F0E8F803003370212340F2100CBC4484
:1033400063441B78180002F071F9031C3849181CFB
:1033500001F05AFC031CFB62242340F2100CBC4415
:1033600063441A787B6DD218182392FBF3F10B009B
:103370005B005B18DB00D31ABB62BB6A9EB22F23D3
:1033800040F2100CBC4463441B78180002F0FEF8B5
:10339000031CF96A181C01F01FFE031C181C01F025
:1033A00099F80300DBB298462E2340F2100CBC447F
:1033B00063441B78180002F0E9F8031CF96A181C32
:1033C00001F00AFE031C181C01F084F80300DBB2B4
:1033D00099462D2340F2100CBC4463441B7818001E
:1033E00002F0D4F8031CF96A181C01F0F5FD031C67
:1033F000181C01F06FF80300DBB24A46414630006A
:10340000FFF74CF87B6D01337B65222340F2100CF3
:10341000BC4463441A787B6D9A4200DD54E7002374
:103420003B65A8E0802E00200000244000E06F40B3
:1034300000007F43222340F2100CBC4463441B78FD
:10344000180003F0A1FAB860F960386D03F05CFA77
:1034500002000B00B868F96802F0DCFE02000B0005
:1034600011000C008021090659400D0000224E4B2E
:103470002000290002F020F902000B0010001900C2
:103480000AF07EFC0022494B02F03CFC02000B00DB
:1034900017211020381846181000190001F032F8D2
:1034A00003003370172340F2100CBC4463441B78B4
:1034B000180002F0BBF8031C3D49181C01F0A4FBE6
:1034C000031C3B62232340F2100CBC4463441A7873
:1034D0003B6DD218182392FBF3F10B005B005B18D5
:1034E000DB00D31AFB61FB699EB2272340F2100C6C
:1034F000BC4463441B78180002F048F8031C396A86
:10350000181C01F069FD031C181C00F0E3FF030008
:10351000DBB29846262340F2100CBC4463441B786F
:10352000180002F033F8031C396A181C01F054FD2E
:10353000031C181C00F0CEFF0300DBB299462523C4
:1035400040F2100CBC4463441B78180002F01EF8D3
:10355000031C396A181C01F03FFD031C181C00F005
:10356000B9FF0300DBB24A4641463000FEF796FF42
:103570003B6D01333B65222340F2100CBC44634495
:103580001A783B6D9A4200DD54E70A4B190010206F
:10359000FEF7CCFFFEF7D4FEC046BD4617B00CBC0C
:1035A00090469946F0BDC0460000244000E06F40C0
:1035B00000007F43FFFFFF00F0B5CE46474680B5D1
:1035C00095B000AF78613961FEF752FF7B690A223E
:1035D00093FBF2F37B617B695A3302DA5A235B4235
:1035E0007B617B6964337B643B693B64E24B1A68B3
:1035F0007B6CB2FBF3F3FB632B2340F2100CBC4457
:103600006344FF221A702A2340F2100CBC44634426
:10361000FF221A70292340F2100CBC446344FF229D
:103620001A70282340F2100CBC446344FF221A7025
:10363000272340F2100CBC446344FF221A70262357
:1036400040F2100CBC446344FF221A70FA6B18233A
:1036500092FBF3F10B005B005B18DB00D21A252311
:1036600040F2100CBC4463441A70252340F2100C45
:10367000BC4463441B780C331A00182392FBF3F10B
:103680000B005B005B18DB00D21A242340F2100C05
:10369000BC4463441A70232340F2100CBC446344BE
:1036A0000C221A700023FB64A0E0232340F2100CCC
:1036B000BC4463441B78180003F066F938607960F5
:1036C000F86C03F021F902000B003868796802F009
:1036D000A1FD02000B001100B960802109065940CC
:1036E000F9600022A54BB868F96801F0E5FF020017
:1036F0000B00100019000AF043FB0022A04B02F05F
:1037000001FB02000B00222110203818461810007F
:10371000190000F0F7FE03003370222340F2100C72
:10372000BC4463441B78180001F080FF031C9549DA
:10373000181C01F069FA031CFB62252340F2100CEF
:10374000BC4463441A78FB6CD218182392FBF3F143
:103750000B005B005B18DB00D31ABB62BB6A9EB236
:103760002B2340F2100CBC4463441B78180001F07A
:103770000DFF031CF96A181C01F02EFC031C181C19
:1037800000F0A8FE0300DBB298462A2340F2100C9A
:10379000BC4463441B78180001F0F8FE031CF96A6E
:1037A000181C01F019FC031C181C00F093FE030008
:1037B000DBB29946292340F2100CBC4463441B78C9
:1037C000180001F0E3FE031CF96A181C01F004FC68
:1037D000031C181C00F07EFE0300DBB24A46414683
:1037E0003000FEF75BFEFB6C0133FB64232340F2E9
:1037F000100CBC4463441A78FB6C9A4200DD54E719
:103800000023BB64A0E0232340F2100CBC446344BB
:103810001B78180003F0B8F8B860F960B86C03F0D2
:1038200073F802000B00B868F96802F0F3FC0200BC
:103830000B0011000C008021090659400D000022E8
:103840004E4B2000290001F037FF02000B00100052
:1038500019000AF095FA0022494B02F053FA0200CF
:103860000B0017211020381846181000190000F01E
:1038700049FE03003370172340F2100CBC4463442C
:103880001B78180001F0D2FE031C3E49181C01F001
:10389000BBF9031C3B62242340F2100CBC4463447C
:1038A0001A78BB6CD218182392FBF3F10B005B0063
:1038B0005B18DB00D31AFB61FB699EB2282340F240
:1038C000100CBC4463441B78180001F05FFE031C1D
:1038D000396A181C01F080FB031C181C00F0FAFD6B
:1038E0000300DBB29846272340F2100CBC4463442B
:1038F0001B78180001F04AFE031C396A181C01F0FD
:103900006BFB031C181C00F0E5FD0300DBB29946BD
:10391000262340F2100CBC4463441B78180001F0CD
:1039200035FE031C396A181C01F056FB031C181CD9
:1039300000F0D0FD0300DBB24A4641463000FEF7FE
:10394000ADFDBB6C0133BB64232340F2100CBC44BF
:1039500063441A78BB6C9A4200DD54E70A4B1900A5
:103960001020FEF7E3FDFEF7EBFCC046BD4615B0A8
:103970000CBC90469946F0BD802E002000002440EB
:1039800000E06F4000007F43FFFFFF0090B589B06B
:1039900004AF786039601C4B1B681922B3FBF2F34B
:1039A00040F26812B3FBF2F240F268114A439B1AEC
:1039B000FB60FB68B42B04DDFB6840F26812D31A8D
:1039C000FB60FB685A3BFB60FB68592B01DD592308
:1039D000FB60FB680BB90123FB60FB68593302DA1B
:1039E00059235B42FB600024FA6839687868074B0A
:1039F0000293074B0193064B0093231CFFF7B2F889
:103A0000C046BD4605B090BD802E0020000040405D
:103A10000000204290B589B004AF786039602B4B2C
:103A20001B681922B3FBF2F340F26812B3FBF2F207
:103A300040F268114A439B1AFB60FB68B42B04DD1B
:103A4000FB6840F26812D31AFB60FB685A3BFB60CC
:103A50001E4B1B681422B3FBF2F340F22C12B3FB93
:103A6000F2F240F22C114A439B1A180001F0DEFDDD
:103A7000031CBB601649B86800F0F8FC03002BB1CA
:103A8000B968144801F0D4FB031CBB60FB68592BD8
:103A900001DD5923FB60FB680BB90123FB60FB6868
:103AA000593302DA59235B42FB60BC68FA68396813
:103AB0007868094B0293094B0193084B0093231C30
:103AC000FFF750F8C046BD4605B090BD802E0020DF
:103AD00000001643000096430000404000002042D2
:103AE000F0B58BB004AF78603960374B1B680A22A1
:103AF000B3FBF2F340F26812B3FBF2F240F268114A
:103B00004A439B1A7B617B69B42B04DD7B6940F2DD
:103B10006812D31A7B617B695A3B7B617B69592BA5
:103B200001DD59237B617B690BB901237B617B69D3
:103B3000593302DA59235B427B61234B1A68234BCA
:103B40001B68D31A1E2B23D9FCF758FD020005234E
:103B500092FBF3F10B009B005B18D31A023B3B6115
:103B6000FCF74CFD03005B005A08092392FBF3F1BC
:103B70000B00DB005B18D31A043BFB60144B1A6884
:103B8000FB68D218124B1A600F4B1A680F4B1A6061
:103B9000104B1B68180001F0F9FC041C0C4B1B684F
:103BA000180001F0F3FC051C00267A693968786872
:103BB000094B029301950094331CFEF7D3FFC046D6
:103BC000BD4607B0F0BDC046802E0020382E002034
:103BD000342E0020281D00200000404090B589B000
:103BE00004AF786039602B4B1B681922B3FBF2F3EA
:103BF00040F26812B3FBF2F240F268114A439B1A9A
:103C0000FB60FB68B42B04DDFB6840F26812D31A3A
:103C1000FB60FB685A3BFB601E4B1B681422B3FB26
:103C2000F2F340F22C12B3FBF2F240F22C114A43B1
:103C30009B1A180001F0FAFC031CBB601649B86817
:103C400000F014FC03002BB1B968144801F0F0FA3D
:103C5000031CBB60FB68592B01DD5923FB60FB682B
:103C60000BB90123FB60FB68593302DA59235B422D
:103C7000FB60BC68FA6839687868094B0293094BA5
:103C80000193084B0093231CFEF76CFFC046BD4612
:103C900005B090BD802E0020000016430000964322
:103CA0000000404000002042F0B5ABB000AFF8602B
:103CB000B960FEF7DDFBFCF7A1FC0300C92293FB12
:103CC000F2F2C9214A439A1A932340F2080CBC44E9
:103CD00063441A70FCF792FC0300C92293FBF2F2D2
:103CE000C9214A439A1A922340F2080CBC44634407
:103CF0001A70FCF783FC0200CD4B134003D5013B47
:103D0000CC4A134301338C2240F2080CBC44624479
:103D10001360FCF773FC0200502392FBF3F10B00DD
:103D20009B005B181B01D21A8B2340F2080CBC4489
:103D300063441A70FB68C04A934201DABF4BFB60D0
:103D4000BF4B1A68BF4B1B78190001231940BE4BAB
:103D50008900CB58D31A0522B3FBF2F3842240F238
:103D6000080CBC4462441360B54B1A68B54B1B7811
:103D70000133B6490B4004D5013B022149420B43B4
:103D800001331900B04B8900CB58D31A0522B3FB7D
:103D9000F2F3802240F2080CBC4462441360FB68DA
:103DA0002D33FF331A00842340F2080CBC446344D3
:103DB0001B689A4243D8A34B1B780133DAB2A14B5C
:103DC0001A70A04B1B781A0001231A409C4B1968EB
:103DD0009D4B9200D1509B4B1B781A00012313403E
:103DE000984A1278110001220A4099498A56D1B2A4
:103DF000932240F2080CBC44624412788A18D2B272
:103E0000643AD2B251B2924AD1548E4B1B781A0006
:103E1000012313408B4A1278110001220A408D4978
:103E20008A56D1B2922240F2080CBC446244127805
:103E30008A18D2B2643AD2B251B2864AD154082317
:103E400040F2080CBC446344180060231A000021AF
:103E500003F088F800239C2240F2080CBC44624422
:103E6000136042E1764B1A68774B9C2140F2080CB4
:103E7000BC44614409688900CB58D31A0522B3FBBE
:103E8000F2F38422BA181360714A9C2340F2080CA2
:103E9000BC4463441B68D3181B785BB2643300D105
:103EA00016E16C4A9C2340F2080CBC4463441B6836
:103EB000D3181B785BB2643300D109E10023982248
:103EC00040F2080CBC4462441360F8E0624B982254
:103ED00040F2080CBC44624412685200D35C1900E2
:103EE0005B4A9C2340F2080CBC4463441B68D31813
:103EF0001B785BB2CB1A180001F048FB031C802230
:103F0000BA181360544A982340F2080CBC44634426
:103F10001B685B00D31801331B7819004D4A9C23A2
:103F200040F2080CBC4463441B68D3181B785BB296
:103F3000CB1A180001F02AFB031CFB678023FB1837
:103F400019688023FB18186801F046F8031C1E1C32
:103F5000F96FF86F01F040F8031C191C301C00F0D9
:103F6000C7FC031C181C02F047FD02000B001000E8
:103F7000190009F083FF02000B001000190002F085
:103F80008BFD031CBB678423FB18186801F04EFBF4
:103F9000031CB96F181C00F069FA0300002B00D154
:103FA00080E08423FB18186802F0EEFC386079602A
:103FB000B86F02F021FD02000B003868796802F04A
:103FC00029F902000B0011000C008021090659405C
:103FD0000D000022214B2000290001F06DFB0200A2
:103FE0000B001000190009F0CBFE00221C4B01F061
:103FF00089FE02000B001000190002F04DFD031CA9
:104000007B679C2340F2080CBC4463441B684BBB99
:10401000082340F2080CBC446344982240F2080C88
:10402000BC44624412689200796FD1503AE0C046B5
:10403000FF1F008000E0FFFFD4FEFFFFD5FEFFFF63
:10404000802E0020442E00203C2E00200100008005
:104050002C1D0020301D00200000002000004440E6
:1040600000E06F40082340F2080CBC4463449822EF
:1040700040F2080CBC44624412689200D358796F35
:10408000181C00F035FC031C191C082340F2080C16
:10409000BC446344982240F2080CBC446244126859
:1040A0009200D150982340F2080CBC4463441B6832
:1040B0000133982240F2080CBC44624413609823F8
:1040C00040F2080CBC4463441B68172B00DCFDE67F
:1040D0009C2340F2080CBC4463441B6801339C22BF
:1040E00040F2080CBC44624413609C2340F2080C6C
:1040F000BC4463441B68012B00DCB3E6002394221C
:1041000040F2080CBC44624413608BE0082340F288
:10411000080CBC446344942240F2080CBC44624442
:1041200012689200D3584749181C00F09FF9030009
:104130006BB1082340F2080CBC446344942240F263
:10414000080CBC446244126892003E49D1500823D6
:1041500040F2080CBC446344942240F2080CBC4476
:10416000624412689200D3586B22082179188C1887
:10417000181C00F0AFF903002370082340F2080C6C
:10418000BC446344942240F2080CBC44624412686C
:104190009200D3586A22082179188C18181C00F054
:1041A00099F903002370082340F2080CBC446344CF
:1041B000942240F2080CBC44624412689200D35826
:1041C0006922082179188C18181C00F083F9030063
:1041D0002370942340F2080CBC4463441B6898B2DB
:1041E000692340F2080CBC4463441C786A2340F203
:1041F000080CBC4463441A786B2340F2080CBC449E
:10420000634419782300FEF749F9942340F2080C1F
:10421000BC4463441B680133942240F2080CBC4444
:1042200062441360942340F2080CBC4463441B684E
:10423000172B00DC6AE7FEF783F8C046BD462BB0BB
:10424000F0BDC04600007F43F7B51F000500019197
:104250001600FDF707FFC30006D4044B32001C68AC
:1042600001993B002800A047F7BDC046342100203B
:1042700070B504000D00FDF7F5FEC30004D4034B38
:1042800029001B682000984770BDC04640210020CF
:1042900070B504000D001600FDF7E4FEC30005D460
:1042A000034B32001B6829002000984770BDC046B0
:1042B0003C21002070B504000D00FDF7D3FEC300C3
:1042C00004D4034B29001B682000984770BDC046EA
:1042D0003821002070B504000D00FDF7C3FEC300B7
:1042E00005D4044B29001B682000984770BD024884
:1042F000FCE7C046282100200000F0F070B5040063
:104300000D001600FDF7AEFEC30006D4044B3200CC
:104310001B6829002000984770BD0248FCE7C04692
:10432000242100200000F0F070B504000D00FDF71E
:1043300099FEC30005D4044B29001B682000984750
:1043400070BD0248FCE7C0462C2100200000F0F0C0
:1043500070B504000D00FDF785FEC30005D4044BC5
:1043600029001B682000984770BD0248FCE7C04642
:10437000302100200000F0F070B50500FDF772FE5E
:10438000C30029D4154B28001B68984740F2B81386
:10439000EB580600012B08D12C0048F6F072FC34D3
:1043A0006388934203D10E4B6380300070BD48F6A2
:1043B00000729342F9D129002000FFF7C9FF0028BD
:1043C000F3D140F2BC13EB582900A360054B200049
:1043D0006380FFF7A9FFE8E7034EE6E7202100200E
:1043E000FF8FFFFFF08FFFFF0000F0F0E0B54546C4
:1043F0004E465746E0B45D4620B42546264627463D
:10440000A046A146A246A346A44684F30088A4473A
:1044100020BCAB46E0BCBA46B146A846E0BD0000B1
:104420008446081C6146FFE71FB500F097FD002891
:1044300001D40021C8421FBD10B500F02FFD40423D
:10444000013010BD10B500F089FD002801DB00200F
:1044500010BD012010BDC04610B500F07FFD002842
:1044600001DD002010BD012010BDC04610B500F0D8
:104470003BFD002801DC002010BD012010BDC0461E
:1044800010B500F031FD002801DA002010BD012038
:1044900010BDC046002B11D1002A0FD1002900D138
:1044A000002802D00021C943081C07B4024802A119
:1044B0004018029003BDC046F926000003B46846C8
:1044C00001B5029800F03AF8019B9E4602B00CBC80
:1044D0007047C0469E2110B5C905041CFFF7D0FFE8
:1044E00018B9201C01F034F810BD9E21201CC9050C
:1044F00000F09EFE01F02CF880231B069C466044D1
:10450000F2E7C04670B500220B4B04000D0002F02C
:1045100085FB20B92000290002F0C8F970BD064BC8
:1045200000222000290001F075FE02F0BFF980236F
:104530001B069C466044F1E70000E041F0B5574699
:104540004546DE464E469846E0B583B017000192D8
:104550001600424605000C0083468A46002A4CD1CC
:104560008F4200D878E0380002F062FB50B120237F
:104570002A001B1ADA4084401300854023438640FA
:104580009A46AB46370CBAFBF7F2390053464FF662
:10459000FF7451431500591A5B46344065430904C2
:1045A0001B0C0B439D4209D99B19511E9E4200D9F9
:1045B0007CE19D4200D879E1023A9B19591BB1FB7D
:1045C000F7F35C435F432500C91B4FF6FF745F465A
:1045D00009043C400C43A54200D95CE1120413439A
:1045E0000022641B01920C9A2AB1C4400C9A0C98C8
:1045F00014600022426018000AE0884510D90C9B24
:10460000002B00D170E11860596000230020019355
:10461000019903B03CBC90469946A246AB46F0BD1A
:10462000404602F005FB0190002800D0A3E0A04521
:1046300002D3AF4200D951E1EF1B4346BD42AD4129
:10464000E41A6D42631B9A4601200C9B002BDFD0BD
:1046500052461F605A60DBE717B90136B6FBF7F622
:10466000300002F0E5FAB8BB4FF6FF770123A51B37
:104670003740340C0193B5FBF4F33A005A439446A7
:1046800022005A43AA1A5D4612042D0C2A4394456F
:1046900007D992195D1E964202D8944500D920E1AF
:1046A0002B006546521BB2FBF4F56C435946121BB6
:1046B0004FF6FF746F4312040C401443A74207D90E
:1046C000A4196A1EA64202D8A74200D903E1150028
:1046D0001B04E41B2B4386E720212A002300091A30
:1046E00086408440CA40CB402243340CB3FBF4F1F3
:1046F00085404FF6FF77AB460D0037407D43AC4613
:1047000025004D435D1B2D04130C91462B439C4506
:1047100009D99B194D1E9E4200D9DAE09C4500D86C
:10472000D7E002399B1962469B1AB3FBF4FC624640
:104730004FF6FF7862439B1A1B049A4642464B464B
:1047400065461A4053467D4313439D420DD9624648
:104750009B19013A9E4200D9B7E09D4200D8B4E0CF
:104760000222524290469B19C4445D1B63460904D1
:10477000194301917FE7202301983A001B1A9C46B8
:10478000434661468340CA4013432A002600CA407C
:104790008440CE4022431C0C87408540B6FBF4F099
:1047A00091464FF6FF7201001A405143884621009E
:1047B0004143761A49463604090C0E43B04509D9DF
:1047C000411EF6188A46B34200D980E0B0457ED932
:1047D0000238F6184146761AB6FBF4F841464C43C7
:1047E0004A43361B49464FF6FF7436040C403443A7
:1047F000A2420BD94146E4184E1EA34263D8A242FE
:1048000061D9022149428946E418C84441464FF61D
:10481000FF7600040843310001408A46010C8846B7
:1048200051463E40714389464146A21A3C0C4E43D4
:104830006143884651464C434946090C8A46A419AF
:104840005444A64203D9802149028A46D044260C0A
:1048500046444FF6FF7821048A464C4641462140A3
:10486000894654464C44B24224D321D00C9B83B198
:104870002C1BA542AD41921B6D42521B1300614699
:104880008B400199CC40CA401C430C9B1C605A6071
:1048900000230193BCE6A419591EA64204D8A542E0
:1048A00002D9023BA41999E60B0097E60A0085E6B7
:1048B000A542DBD2E71BF31ABC42B641764201386F
:1048C0009E1B3C00D2E7B046A0E794464DE7504619
:1048D00080E7290027E7023DA419F9E600202F0010
:1048E000B3E6023B9219DCE60023002001938FE639
:1048F000F0B5C6464E024702760A7B0A4400C50F51
:10490000F7004800984600B5240E2A00DB00000E90
:10491000C90FBC468D4267D0221A002A00DCA5E0F0
:1049200000283AD1002F00D193E0511E002900D079
:10493000BBE00124DB1B5A0146D59B019E093000D8
:1049400002F076F905388640844200DD9CE0041BC5
:10495000320020200134E240041BA64033005E1EDA
:10496000B341002413435A0704D00F221A40042AEB
:1049700000D004335A0129D50134FF2C00D180E046
:104980002A009B015B0AE4B25B02E405580AD207E5
:104990002043104304BC9046F0BDFF2CE3D080219F
:1049A0003800C904084384461B2A00DD81E020202A
:1049B0006146D140821A604690400200501E8241FA
:1049C0000A439B1A5A01B8D45A07CED1DE082A00EE
:1049D000FF2C3AD1002E00D1ACE08023DB0333431F
:1049E0005B025B0AFF24CFE7211A002951DD90B357
:1049F000FF2CB8D080203E00C0040643B4461B29DB
:104A000000DDA9E020266046C840711A66468E4047
:104A100031004E1EB14101435B185901D4D5013418
:104A2000FF2C00D186E0012275491A405B080B403B
:104A3000134398E7002C00D0A3E0002B00D0B1E096
:104A40003B00002F60D10026002273025B0AE4B213
:104A50009AE7140087E7002F4BD0481E002855D155
:104A6000634401245A01AFD50224DCE722BB621C57
:104A7000D2B2012ADEDDDE1B720134D5FE1A0D0032
:104A80005DE72A0000237FE733005E4A241A1340C3
:104A900069E7002962D1611CC8B201284DDDFF29F8
:104AA00048D063445B080C005DE7FF2A40D00A0051
:104AB0007AE701229B1A85E7ECB1FF2822D08024F7
:104AC000E404524223431B2A00DD86E01C0020251B
:104AD000D440AA1A93405A1E9341234362460400CD
:104AE000D31A0D0027E7002E00D028E7002200246B
:104AF000ABE70C0037E7002B49D0D243002AEDD0BA
:104B0000FF28E0D16346FF240D002CE7FF290FD0DA
:104B1000010074E7002B5DD0FF24002F00D122E7B5
:104B200080224146D203114202D0164200D13B00FE
:104B3000FF2418E7FF24002326E7002CEAD1002BEE
:104B400054D0002F00D10EE763445A0100D43BE754
:104B50002C4A0C00134006E701215DE7DCB9F3B3F2
:104B6000C94359B1FF2835D01B2947DC1C0020263A
:104B7000CC40711A8B40591E8B412343634404007F
:104B80004BE7C3B93B006FB30D00FF24EBE63B00DE
:104B900004000D00E7E6FF281CD08024E40449420D
:104BA0002343E1E7002F00D1DDE6DE1B72011FD5B4
:104BB000FB1A0D00D7E6FF24002F00D1D3E6802298
:104BC0004046D2031042B3D01642B1D13B000D0093
:104BD000FF24C8E66346FF24C5E601237EE73B00C9
:104BE0000400C0E680260022F603F6E63B00BAE6A3
:104BF0003300002E00D0E7E6002226E70123BDE7C0
:104C0000FFFFFF7DFFFFFFFBF0B557464E46DE4638
:104C10004546E0B543004402C60F1B0E83B00F1C8F
:104C2000640AB246002B54D0FF2B28D08022E40027
:104C3000D20414437F225242904640F2000940F2CF
:104C4000000B984478007D02FB0F000E6D0A009364
:104C500028B3FF2845D080230021ED00DB041D434D
:104C60007F384746381A4F460F43BF00B9463300D6
:104C7000009A874F53404A46BA5801939746002CF2
:104C80004DD178007D02FB0F000E40F2080940F282
:104C9000FF0840F2020B6D0A00930028D9D125BB12
:104CA000002001213300009A7A4F53404246101AE7
:104CB0004A460A439200BA581D009746009B2C00B2
:104CC0009A468B465B46022B30D15346FF21002487
:104CD00037E0B4B940F2040940F2000840F2010B99
:104CE000B0E7FF205DB90221DCE7280001F0A0FF5A
:104CF000431F9D4076235B42181A0021B1E7032130
:104D0000AFE7200001F094FF431F9C4076235B42F5
:104D10001B1A984640F2000940F2000B92E740F25D
:104D20000C0940F2FF0840F2030B8BE7032B00D184
:104D3000A5E05546012B00D081E00123002100248D
:104D40002B406402C905600ADB070843184303B01F
:104D50003CBC90469946A246AB46F0BD8024002359
:104D6000E403FF21EDE7FF210024EAE70123591ABC
:104D70001B2966DD019A134000210024E1E780230E
:104D8000DB031C4238D01D4251D01C436402640A2C
:104D90003300FF21D5E763016C01A3423BD21B2600
:104DA0000021013801251F0049005B00002F01DBB5
:104DB0009C4201D81B1B2943013E002EF3D11C004D
:104DC000631E9C410C4301007F310029CEDD630747
:104DD00004D00F232340042B00D00434230103D537
:104DE00001002D4B80311C40FE290DDD0123019A6D
:104DF000FF2113400024A4E78023DB031C4364024B
:104E0000640A3300FF219CE70123019AA401640A8C
:104E1000C9B2134095E71B1B1A260121C2E7009B6C
:104E20008B469A4600244DE76302E5D50025802491
:104E3000E4032C436402640A009BFF2181E701958F
:104E4000C1E723002020CB40411A8C40611E8C41D9
:104E50001C43630704D00F232340042B00D00434E9
:104E6000630105D50123019A01211340002468E75D
:104E70000123019AA401640A1340002161E7802301
:104E8000DB031C436402640A5346FF2159E7C04612
:104E90009CFB0000DCFB0000FFFFFFF770B5420049
:104EA00045024E024C00C30F6D0A120E760A240E04
:104EB000C90F0120FF2A06D0FF2C03D0A24201D146
:104EC000B54206D070BD002DFCD1FF2CFAD1002ECA
:104ED000F8D18B4206D00120002AF3D12800451ECC
:104EE000A841EFE70020EDE7F0B5420045024C0293
:104EF000C30F48006D0A120E640A000EC90FFF2A84
:104F00001DD0FF2810D03AB96E426E41F6B280B97A
:104F10007CB900203DB103E000B90CB18B4211D047
:104F2000012158420843F0BD002CECD00220404241
:104F3000F9E7002EF2D0012001390843F3E7002DF4
:104F4000DFD0F3E78242EBDC04DBA542E8D80020A7
:104F5000A542E8D20121581E0843E4E7F0B542001B
:104F60004D024C004602760A120EC30F6D0A240E43
:104F7000C90FFF2A16D0FF2C10D042B970427041E1
:104F8000C0B29CB120B1012001390843F0BD9CB1F1
:104F9000994214D001205B421843F7E70220002D0C
:104FA000F4D1EAE70220002EF0D1E4E7002DE9D1A8
:104FB0000020002EEAD0EDE7002DE9D1EAE7A24279
:104FC00006DCE0DBAE4203D80020AE42DBD3DDE7F7
:104FD000012049420843D9E7F0B546464F46D64638
:104FE0004302C0B546005B0A360E88469946C40F98
:104FF000002E51D0FF2E23D08020DB00C0041843A8
:105000008146002740F2000A7F3E434658005D0279
:10501000000EDB0F6D0A984608B3FF2842D0EB0064
:105020008025ED041D4300237F384146361861403A
:10503000701C1F430F2F69D87B4ABF00D259974677
:10504000002B48D1434658005D02000EDB0F0827B5
:10505000FF2640F2020A6D0A98460028DDD1002D95
:105060003ED100200123E0E74146022B20D0032B54
:1050700000D1CFE0012B00D0ADE00022002019408C
:10508000CCB24002D205400AE407104320431CBCC6
:1050900090469946A246F0BD7BB90427002640F20F
:1050A000010AB2E7FF200223002DBED00323BCE794
:1050B0000124FF220C400020E3E7180001F0B8FDB6
:1050C0004A46431F76269A4076429146361A002772
:1050D00040F2000A99E70C27FF2640F2030A94E702
:1050E000280001F0A5FD431F9D4076235B42181A5E
:1050F00000239AE780200024C003FF22C1E74D4629
:105100005346B2E74D4621005346AEE74B461B0CD3
:1051100098464A464FF6FF731A402B401C005443F2
:105120002F0CA446454644467D435743624663439D
:10513000120CFF18D219934203D980235B029846C0
:10514000454467464FF6FF7314043B40E418A3013F
:105150005F1EBB41120CA40E55191C43AD01254323
:105160002B0104D5012306006A081D4015433200B7
:105170007F32002A27DD6B0704D00F232B40042B3E
:1051800000D004352B0103D53200284B80321D405E
:10519000FE2A8DDC0124A801400AD2B20C4070E73F
:1051A00080204B46C003034208D0054205D1284366
:1051B0004002400A4446FF2263E74B461843400240
:1051C000400AFF225DE70124A31A1B2B05DD0C40DA
:1051D0000022002055E70600C9E72A002020DA4017
:1051E000C31A9D402B005D1EAB4113435A0704D0E8
:1051F0000F221A40042A00D004335A0104D5012496
:1052000001220C4000203CE701249B01580A0C407D
:10521000002236E780200124C00328434002400AD0
:105220000C40FF222DE7C0461CFC0000FFFFFFF7EB
:10523000F8B5CE4647464400C20F80B54702480243
:10524000400A844666467B0A48009946240E1500AB
:10525000DB00000EC90FF600FF2800D18DE040F200
:10526000010847467940914265D0221A002A00DCA5
:105270009CE000283CD1002E00D18AE0511E00297C
:1052800000D0B3E001249B1B5A0143D59B019F0929
:10529000380001F0CDFC05388740844200DD94E001
:1052A000041B3A0020200134E240041BA7403B00CD
:1052B0005F1EBB41002413435A0704D00F221A403B
:1052C000042A00D004335A0126D50134FF2C00D122
:1052D00077E001229B015B0AE4B22A405B02E4050D
:1052E000580AD207204310430CBC90469946F8BD9B
:1052F000FF2CE1D08021C9040E431B2A7ADC310047
:105300002020D140821A9640721E96410E439B1B6C
:105310005A01BBD45A07D1D10122DF082A40FF2C01
:1053200033D1002F00D1A6E08023DB033B435B0297
:105330005B0AFF24D2E7211A00294BDD58B3FF2C6A
:10534000BAD08020C00406431B2900DDACE0300049
:105350002027C840791A8E40711E8E4106439B1942
:105360005901D7D50134FF2C00D184E001227649C0
:105370001A405B080B4013439EE7002E00D072E7F3
:105380006DE73B00002FC5D100227B025B0AE4B22F
:10539000A4E7140090E7002E4BD0481E002855D1FA
:1053A0009B1901245A01B5D50224DFE72ABB621CF0
:1053B000D2B2012A71DD9F1B7A0134D5F71A0D0094
:1053C00066E7012200232A4088E73B005F4A241A4F
:1053D000134071E7002969D1611CC8B201284DDD75
:1053E000FF2948D09B195B080C0065E7FF2A40D0D5
:1053F0000A0082E701269B1B8AE7E4B1FF2821D03F
:105400008024E404524223431B2A00DD90E01C0068
:105410002025D440AA1A93405A1E93412343F31ADD
:1054200004000D0030E7002F00D031E700220024F7
:10543000ABE70C0040E7002B52D0D243002AEED05D
:10544000FF28E1D13300FF240D0035E7FF2910D0FC
:10545000010079E7002B68D0FF24002E00D12BE754
:1054600080224946D203114203D06146114200D145
:105470003300FF2420E7FF2400232FE7002CE9D18D
:10548000002B5DD0002E00D116E79B195A0100D4E5
:1054900040E72E4A0C0013400EE7DCB95BBB002E40
:1054A0004BD033000D0007E7012658E7E4B9002B85
:1054B00040D0C94359B1FF2837D01B2942DC1C001A
:1054C0002027CC40791A8B40591E8B4123439B19CE
:1054D000040045E7CBB926BB80270022FF0323E762
:1054E000330004000D00E7E6FF281ED08024E4040A
:1054F00049422343E1E7002E00D1DDE69F1B7A01FC
:1055000000D43EE7F31A0D00D6E6FF24002E00D1AA
:10551000D2E680224846D2031042AAD0604610420A
:10552000A7D133000D00FF24C6E63300FF24C3E6F5
:10553000012374E733000400BEE60027002224E7BD
:105540003300B9E60123C2E7FFFFFF7DFFFFFFFB4A
:1055500041024300C20F490A1B0E00207E2B0CDDC6
:105560009D2B0BDC802000040143952B09DC962049
:10557000C31AD940484202B908007047024BD018FC
:10558000FBE7963B9940F5E7FFFFFF7F70B50028EA
:1055900030D0C317C4185C40C50F200001F048FB91
:1055A0009E231B1A962B0DDC9622D21A94402A00B9
:1055B0006402640ADBB26402DB05600AD2071843A6
:1055C000104370BD992B19DC9922D21A002A29DDCB
:1055D00094402200144C1440510704D00F210A407B
:1055E000042A00D00434620113D4A401640ADBB29B
:1055F0002A00E0E7002200230024DCE70522210046
:10560000121AD140B922D21A9440621E94410C431E
:10561000DAE7054B2A001C409F23A4011B1A640AE9
:10562000DBB2C8E72200D5E7FFFFFFFB10B504009F
:1056300038B301F0FDFA9E231B1A962B0ADC962242
:10564000D21A94406402640ADBB26402DB05600A89
:10565000184310BD992B17DC9922D21A002A27DD96
:1056600094402200134C1440510704D00F210A40EB
:10567000042A00D00434620112D4A401640ADBB20B
:10568000E3E700230024E0E7B9222100D21A914089
:105690000A00511E8A410521091ACC401443DBE758
:1056A000044B1C409F23A4011B1A640ADBB2CCE705
:1056B0002200D7E7FFFFFFFBF0B557464546DE4621
:1056C0004E46E0B54C001E000F03CB0F640D85B0B5
:1056D0008346924605003F0B9846002C53D040F27B
:1056E000FF739C4235D08023420F1B04FF001343FD
:1056F0003B4399466F4B00279C460023C5006444FA
:10570000029333031B0B9B4673005B0DF60F504651
:105710000196002B63D040F2FF72934255D05A4657
:10572000D1008022400F120402430A43614993468C
:10573000524658180021D2004346201A73409C4616
:1057400000900F430F2F00D9BCE05B48BF00C05949
:10575000874603003B439946002B75D10223002561
:10576000082740F2FF740293CBE74346CB462A005A
:1057700002990193022900D0BBE1019B40F2FF7620
:10578000002400256DE003003B439946002B55D0D3
:10579000002F00D1C6E1380001F04AFA03000B3BAC
:1057A0001C2B00DDB7E11D22D31A5A460100DA4056
:1057B00008398F4013005D463B4399468D400023D6
:1057C0003E4C0027241A02939BE752465B461A433D
:1057D0007ABB40F2000B40F2FF700221ACE75A4660
:1057E00002430AB35B46002B00D1A6E1584601F004
:1057F0001FFA03000B3B1C2B00DD97E1020059460A
:10580000083A914040F21D0C8B466146CB1A514636
:10581000D9400B0059460B439B46534693401A0010
:10582000264B0021181A87E740F2000B00200121C7
:1058300082E7524640F2FF7003217DE701230025F5
:105840000427002402935CE70323B94640F2FF7467
:105850000C27029355E7802400230025240340F2FF
:10586000FF7600212403220B0C0D28002405144D83
:1058700014432C40320522435200DB0752081A43DE
:10588000110005B03CBC90469946A246AB46F0BD1F
:10589000012252420123991B382900DCBDE16246F6
:1058A0001340002600240025DBE740F2FF760024A9
:1058B0000025D6E701FCFFFF5CFC00000DFCFFFFAC
:1058C000FFFF0F80D94500D93EE100D139E1009BAF
:1058D0002F00013B009300254B465946100E09024C
:1058E0000143080C16024FF6FF72B3FBF0F80A40B2
:1058F0001400019242466243444644431B1B1B046E
:1059000099464C463B0C23439A420FD901246442EA
:1059100044445B18A146994200D93DE19A4200D81F
:105920003AE102246442A1465B18C8449B1AB3FBC7
:10593000F0FB5A46019C4FF6FF7A62435C464443B3
:105940001B1B54461B043C4023439A420DD95C4622
:105950005B18671E994200D920E19A4200D81DE1E8
:1059600002246442A1465B18CB449A1A43465C4623
:105970004FF6FF781B041C43330C9A464346270C12
:105980002340A3464446344003945C430294039C62
:105990007C43A146544663436743029C4B44240C1A
:1059A000A0464344994503D980246402A046474455
:1059B0001C0CA146B9444FF6FF77029C1B042740FC
:1059C000DB194A4500D2CBE000D1C5E04C46171B9D
:1059D000EB1A9D42AD416D427F1BB94200D107E1F8
:1059E000B7FBF0F20400019D544355433F1B3F04B5
:1059F0001C0C2743BD420AD9541E7F18A046B94249
:105A000000D9FFE0BD4200D8FCE0023A7F187F1BBE
:105A1000B7FBF0F568433F1A4FF6FF70019C3F0457
:105A20006C430340A0463B439C4209D95B18681E67
:105A3000994200D9E8E09C4200D8E5E0023D5B18BD
:105A4000404612042A43039C150C1B1A4FF6FF70A4
:105A500027006C43A04654461040474365436043CB
:105A60003C0CA14640444844804503D9802464024C
:105A7000A0464544040CA04645444FF6FF784446F2
:105A800000043C400019AB4200D299E000D194E000
:105A900001231A4340F2FF330099CE18002E00DC98
:105AA000F8E6530700D097E05B46DB0107D559467F
:105AB000934B194040F200438B460099CE1840F2B8
:105AC000FE739E426CDD0123624640F2FF76134076
:105AD00000240025C5E680244B462403234215D02C
